{"abi":[{"type":"function","name":"constructTokenURI","inputs":[{"name":"params","type":"tuple","internalType":"struct NFTDescriptor.ConstructTokenURIParams","components":[{"name":"tokenId","type":"uint256","internalType":"uint256"},{"name":"isLocked","type":"bool","internalType":"bool"},{"name":"positionValue","type":"uint256","internalType":"uint256"}]}],"outputs":[{"name":"","type":"string","internalType":"string"}],"stateMutability":"pure"}],"bytecode":{"object":"0x611241610039600b82828239805160001a607314602c57634e487b7160e01b600052600060045260246000fd5b30600052607381538281f3fe73000000000000000000000000000000000000000030146080604052600436106100355760003560e01c8063c49917d71461003a575b600080fd5b61004d610048366004610595565b610063565b60405161005a919061064b565b60405180910390f35b60606000610070836100d9565b905060006100856100808561010e565b610191565b90506100b1828260405160200161009d9291906106b8565b604051602081830303815290604052610191565b6040516020016100c191906107fb565b60405160208183030381529060405292505050919050565b60606100e882600001516101bd565b6040516020016100f89190610840565b6040516020818303038152906040529050919050565b6060600061011a6102fa565b905060006101278461031f565b905060006040518060400160405280600a81526020017f3c2f673e3c2f7376673e00000000000000000000000000000000000000000000815250905082828260405160200161017893929190610885565b6040516020818303038152906040529350505050919050565b60606101b7826040518060600160405280604081526020016111cc6040913960016103e4565b92915050565b60608160000361020057505060408051808201909152600181527f3000000000000000000000000000000000000000000000000000000000000000602082015290565b8160005b811561022a5780610214816108f7565b91506102239050600a8361095e565b9150610204565b60008167ffffffffffffffff81111561024557610245610566565b6040519080825280601f01601f19166020018201604052801561026f576020820181803683370190505b5090505b84156102f257610284600183610972565b9150610291600a86610985565b61029c906030610999565b60f81b8183815181106102b1576102b16109ac565b60200101907effffffffffffffffffffffffffffffffffffffffffffffffffffffffffffff1916908160001a9053506102eb600a8661095e565b9450610273565b949350505050565b606060405160200161030b906109db565b604051602081830303815290604052905090565b606060008260200151610367576040518060400160405280600481526020017ff09f94930000000000000000000000000000000000000000000000000000000081525061039e565b6040518060400160405280600481526020017ff09f9492000000000000000000000000000000000000000000000000000000008152505b90506103ad83600001516101bd565b816103bb85604001516101bd565b6040516020016103cd93929190610e6c565b604051602081830303815290604052915050919050565b60608351600003610404575060408051602081019091526000815261055f565b6000826104355760038551600461041b91906111b4565b610426906002610999565b610430919061095e565b61045a565b6003855160026104459190610999565b61044f919061095e565b61045a9060046111b4565b905060008167ffffffffffffffff81111561047757610477610566565b6040519080825280601f01601f1916602001820160405280156104a1576020820181803683370190505b50905060018501602082018788518901602081018051600082525b82841015610517576003840193508351603f8160121c168701518653600186019550603f81600c1c168701518653600186019550603f8160061c168701518653600186019550603f81168701518653506001850194506104bc565b9052505085156105585760038851066001811461053b576002811461054e57610556565b603d6001830353603d6002830353610556565b603d60018303535b505b5090925050505b9392505050565b7f4e487b7100000000000000000000000000000000000000000000000000000000600052604160045260246000fd5b600060608284031280156105a857600080fd5b600090506040516060810181811067ffffffffffffffff821117156105f4577f4e487b710000000000000000000000000000000000000000000000000000000083526041600452602483fd5b604052833581526020840135801515811461060d578283fd5b602082015260409384013593810193909352509092915050565b60005b8381101561064257818101518382015260200161062a565b50506000910152565b602081526000825180602084015261066a816040850160208701610627565b601f017fffffffffffffffffffffffffffffffffffffffffffffffffffffffffffffffe0169190910160400192915050565b600081516106ae818560208601610627565b9290920192915050565b7f7b226e616d65223a2200000000000000000000000000000000000000000000008152600083516106f0816009850160208801610627565b7f222c20226465736372697074696f6e223a2244796e616d6963204e46542072656009918401918201527f70726573656e74696e67207265616c2d74696d65206c6971756964697479206660298201527f6c6f7720616e642076616c756174696f6e206f6620612050616368697261205060498201527f6f736974696f6e2e222c2022696d616765223a2022000000000000000000000060698201527f646174613a696d6167652f7376672b786d6c3b6261736536342c000000000000607e82015283516107c5816098840160208801610627565b7f227d00000000000000000000000000000000000000000000000000000000000060989290910191820152609a01949350505050565b7f646174613a6170706c69636174696f6e2f6a736f6e3b6261736536342c00000081526000825161083381601d850160208701610627565b91909101601d0192915050565b7f5061636869726120506f736974696f6e20230000000000000000000000000000815260008251610878816012850160208701610627565b9190910160120192915050565b60008451610897818460208901610627565b8451908301906108ab818360208901610627565b84519101906108be818360208801610627565b0195945050505050565b7f4e487b7100000000000000000000000000000000000000000000000000000000600052601160045260246000fd5b60007fffffffffffffffffffffffffffffffffffffffffffffffffffffffffffffffff8203610928576109286108c8565b5060010190565b7f4e487b7100000000000000000000000000000000000000000000000000000000600052601260045260246000fd5b60008261096d5761096d61092f565b500490565b818103818111156101b7576101b76108c8565b6000826109945761099461092f565b500690565b808201808211156101b7576101b76108c8565b7f4e487b7100000000000000000000000000000000000000000000000000000000600052603260045260246000fd5b7f3c7376672077696474683d2232393022206865696768743d223530302220766981527f6577426f783d2230203020323930203530302220786d6c6e733d22687474703a60208201527f2f2f7777772e77332e6f72672f323030302f7376672220786d6c6e733a786c6960408201527f6e6b3d22687474703a2f2f7777772e77332e6f72672f313939392f786c696e6b60608201527f223e00000000000000000000000000000000000000000000000000000000000060808201527f3c646566733e000000000000000000000000000000000000000000000000000060828201527f3c6c696e6561724772616469656e742069643d2267726164222078313d22302560888201527f222079313d223025222078323d223025222079323d2231303025223e0000000060a88201527f3c73746f70206f66667365743d223025222073746f702d636f6c6f723d22233160c482019081527f4531453145222073746f702d6f7061636974793d223122202f3e00000000000060e483015260009060fe83016102f2610e43610df4610dcb610da2610d53610cb8610c43610bf4610bcb8a7f3c73746f70206f66667365743d2231303025222073746f702d636f6c6f723d2281527f23333333333333222073746f702d6f7061636974793d223122202f3e000000006020820152603c0190565b7f3c2f6c696e6561724772616469656e743e000000000000000000000000000000815260110190565b7f3c66696c7465722069643d22676c6f772220783d222d3530252220793d222d3581527f3025222077696474683d223230302522206865696768743d2232303025223e006020820152603f0190565b7f3c6665476175737369616e426c757220696e3d22536f7572636547726170686981527f632220737464446576696174696f6e3d2231302220726573756c743d22626c7560208201527f7222202f3e000000000000000000000000000000000000000000000000000000604082015260450190565b7f3c6665436f6c6f724d617472697820696e3d22626c75722220747970653d226d81527f6174726978222076616c7565733d22312030203020302030203020312030203060208201527f203020302030203120302030203020302030203138202d372220726573756c7460408201527f3d22676c6f7722202f3e000000000000000000000000000000000000000000006060820152606a0190565b7f3c6665426c656e6420696e3d22536f75726365477261706869632220696e323d81527f22676c6f7722202f3e0000000000000000000000000000000000000000000000602082015260290190565b7f3c2f66696c7465723e0000000000000000000000000000000000000000000000815260090190565b7f3c2f646566733e00000000000000000000000000000000000000000000000000815260070190565b7f3c726563742077696474683d22323930707822206865696768743d223530307081527f78222066696c6c3d2275726c2823677261642922202f3e000000000000000000602082015260370190565b7f3c672066696c7465723d2275726c2823676c6f7729223e000000000000000000815260170190565b7f3c7465787420783d223530252220793d22313030222066696c6c3d227768697481527f652220666f6e742d66616d696c793d22436f7572696572204e65772220666f6e60208201527f742d73697a653d22333670782220746578742d616e63686f723d226d6964646c60408201527f65223e000000000000000000000000000000000000000000000000000000000060608201527f49443a2000000000000000000000000000000000000000000000000000000000606382015260008451610f3c816067850160208901610627565b7f3c2f746578743e000000000000000000000000000000000000000000000000006067918401918201527f3c7465787420783d223530252220793d22323030222066696c6c3d2277686974606e8201527f652220666f6e742d66616d696c793d22436f7572696572204e65772220666f6e608e8201527f742d73697a653d22353070782220746578742d616e63686f723d226d6964646c60ae8201527f65223e000000000000000000000000000000000000000000000000000000000060ce8201526111aa61101c6111816110e6826110e06110458260d189018d61069c565b7f3c2f746578743e00000000000000000000000000000000000000000000000000815260070190565b7f3c7465787420783d223530252220793d22333030222066696c6c3d227768697481527f652220666f6e742d66616d696c793d22436f7572696572204e65772220666f6e60208201527f742d73697a653d22343870782220746578742d616e63686f723d226d6964646c60408201527f65223e0000000000000000000000000000000000000000000000000000000000606082015260630190565b8961069c565b7f3c7465787420783d223530252220793d22333530222066696c6c3d227768697481527f652220666f6e742d66616d696c793d22436f7572696572204e65772220666f6e60208201527f742d73697a653d22343870782220746578742d616e63686f723d226d6964646c60408201527f65223e0000000000000000000000000000000000000000000000000000000000606082015260630190565b7f42414c5f574c5000000000000000000000000000000000000000000000000000815260070190565b9695505050505050565b80820281158282048414176101b7576101b76108c856fe4142434445464748494a4b4c4d4e4f505152535455565758595a6162636465666768696a6b6c6d6e6f707172737475767778797a303132333435363738392b2fa2646970667358221220a48a0fa93b0e6d898f43c8aa690be85908532f801f014e5eb80b7e0279fd514a64736f6c634300081c0033","linkReferences":{}},"methodIdentifiers":{"constructTokenURI(NFTDescriptor.ConstructTokenURIParams)":"c49917d7"},"id":99}