{"abi":[{"type":"constructor","inputs":[{"name":"tokenName","type":"string","internalType":"string"},{"name":"tokenSymbol","type":"string","internalType":"string"},{"name":"tokenDecimals","type":"uint8","internalType":"uint8"},{"name":"newTokenSupply","type":"uint256","internalType":"uint256"},{"name":"owner_","type":"address","internalType":"address"}],"stateMutability":"nonpayable"},{"type":"function","name":"acceptOwnership","inputs":[],"outputs":[{"name":"","type":"bool","internalType":"bool"}],"stateMutability":"nonpayable"},{"type":"function","name":"allowance","inputs":[{"name":"owner","type":"address","internalType":"address"},{"name":"spender","type":"address","internalType":"address"}],"outputs":[{"name":"","type":"uint256","internalType":"uint256"}],"stateMutability":"view"},{"type":"function","name":"approve","inputs":[{"name":"spender","type":"address","internalType":"address"},{"name":"amount","type":"uint256","internalType":"uint256"}],"outputs":[{"name":"result","type":"bool","internalType":"bool"}],"stateMutability":"nonpayable"},{"type":"function","name":"balanceOf","inputs":[{"name":"account","type":"address","internalType":"address"}],"outputs":[{"name":"balance","type":"uint256","internalType":"uint256"}],"stateMutability":"view"},{"type":"function","name":"burn","inputs":[{"name":"amount","type":"uint256","internalType":"uint256"},{"name":"to","type":"address","internalType":"address"}],"outputs":[{"name":"","type":"uint256","internalType":"uint256"}],"stateMutability":"nonpayable"},{"type":"function","name":"decimals","inputs":[],"outputs":[{"name":"","type":"uint8","internalType":"uint8"}],"stateMutability":"view"},{"type":"function","name":"decreaseAllowance","inputs":[{"name":"spender","type":"address","internalType":"address"},{"name":"subtractedValue","type":"uint256","internalType":"uint256"}],"outputs":[{"name":"","type":"bool","internalType":"bool"}],"stateMutability":"nonpayable"},{"type":"function","name":"increaseAllowance","inputs":[{"name":"spender","type":"address","internalType":"address"},{"name":"addedValue","type":"uint256","internalType":"uint256"}],"outputs":[{"name":"","type":"bool","internalType":"bool"}],"stateMutability":"nonpayable"},{"type":"function","name":"isOperator","inputs":[{"name":"query","type":"address","internalType":"address"}],"outputs":[{"name":"","type":"bool","internalType":"bool"}],"stateMutability":"view"},{"type":"function","name":"mint","inputs":[{"name":"amount","type":"uint256","internalType":"uint256"},{"name":"to","type":"address","internalType":"address"}],"outputs":[{"name":"","type":"uint256","internalType":"uint256"}],"stateMutability":"payable"},{"type":"function","name":"name","inputs":[],"outputs":[{"name":"","type":"string","internalType":"string"}],"stateMutability":"view"},{"type":"function","name":"owner","inputs":[],"outputs":[{"name":"","type":"address","internalType":"address"}],"stateMutability":"view"},{"type":"function","name":"proposedOwner","inputs":[],"outputs":[{"name":"","type":"address","internalType":"address"}],"stateMutability":"view"},{"type":"function","name":"renounceOwnership","inputs":[],"outputs":[{"name":"","type":"bool","internalType":"bool"}],"stateMutability":"nonpayable"},{"type":"function","name":"setOperator","inputs":[{"name":"operator","type":"address","internalType":"address"},{"name":"status","type":"bool","internalType":"bool"}],"outputs":[{"name":"","type":"bool","internalType":"bool"}],"stateMutability":"nonpayable"},{"type":"function","name":"symbol","inputs":[],"outputs":[{"name":"tokenSymbol","type":"string","internalType":"string"}],"stateMutability":"view"},{"type":"function","name":"totalSupply","inputs":[],"outputs":[{"name":"supply","type":"uint256","internalType":"uint256"}],"stateMutability":"view"},{"type":"function","name":"transfer","inputs":[{"name":"recipient","type":"address","internalType":"address"},{"name":"amount","type":"uint256","internalType":"uint256"}],"outputs":[{"name":"result","type":"bool","internalType":"bool"}],"stateMutability":"nonpayable"},{"type":"function","name":"transferFrom","inputs":[{"name":"sender","type":"address","internalType":"address"},{"name":"recipient","type":"address","internalType":"address"},{"name":"amount","type":"uint256","internalType":"uint256"}],"outputs":[{"name":"result","type":"bool","internalType":"bool"}],"stateMutability":"nonpayable"},{"type":"function","name":"transferOwnership","inputs":[{"name":"proposedOwner_","type":"address","internalType":"address"}],"outputs":[{"name":"","type":"bool","internalType":"bool"}],"stateMutability":"nonpayable"},{"type":"event","name":"Approval","inputs":[{"name":"owner","type":"address","indexed":true,"internalType":"address"},{"name":"spender","type":"address","indexed":true,"internalType":"address"},{"name":"value","type":"uint256","indexed":false,"internalType":"uint256"}],"anonymous":false},{"type":"event","name":"OwnershipTransfered","inputs":[{"name":"prevOwner","type":"address","indexed":true,"internalType":"address"},{"name":"newOwner","type":"address","indexed":true,"internalType":"address"}],"anonymous":false},{"type":"event","name":"Transfer","inputs":[{"name":"from","type":"address","indexed":true,"internalType":"address"},{"name":"to","type":"address","indexed":true,"internalType":"address"},{"name":"value","type":"uint256","indexed":false,"internalType":"uint256"}],"anonymous":false},{"type":"event","name":"TransferProposed","inputs":[{"name":"proposedOwner","type":"address","indexed":true,"internalType":"address"}],"anonymous":false},{"type":"error","name":"ERC20InsufficientAllowance","inputs":[{"name":"spender","type":"address","internalType":"address"},{"name":"allowance","type":"uint256","internalType":"uint256"},{"name":"needed","type":"uint256","internalType":"uint256"}]},{"type":"error","name":"ERC20InsufficientBalance","inputs":[{"name":"sender","type":"address","internalType":"address"},{"name":"balance","type":"uint256","internalType":"uint256"},{"name":"needed","type":"uint256","internalType":"uint256"}]},{"type":"error","name":"ERC20InvalidApprover","inputs":[{"name":"approver","type":"address","internalType":"address"}]},{"type":"error","name":"ERC20InvalidReceiver","inputs":[{"name":"receiver","type":"address","internalType":"address"}]},{"type":"error","name":"ERC20InvalidSender","inputs":[{"name":"sender","type":"address","internalType":"address"}]},{"type":"error","name":"ERC20InvalidSpender","inputs":[{"name":"spender","type":"address","internalType":"address"}]},{"type":"error","name":"NotOwner","inputs":[{"name":"caller","type":"address","internalType":"address"}]},{"type":"error","name":"NotProposed","inputs":[{"name":"caller","type":"address","internalType":"address"}]}],"bytecode":{"object":"0x608060405234801561001057600080fd5b5060405161211e38038061211e83398101604081905261002f9161043c565b61003a858585610063565b6100448282610073565b5061004e816100a1565b6100598160016100f6565b5050505050610671565b61006e83838361012e565b505050565b60006100908361008161017e565b61008b91906104ff565b610191565b61009a82846101a1565b5090919050565b806100aa6101c2565b80546001600160a01b0319166001600160a01b03928316179055604051908216906000907f0d18b5fd22306e373229b9439188228edca81207d1667f604daf6cef8aa3ee67908290a350565b806100ff610231565b6001600160a01b039390931660009081526020939093526040909220805460ff19169215159290921790915550565b8261013761029b565b9061014290826105a0565b508161014c61029b565b6001019061015a90826105a0565b508061016461029b565b600201805460ff191660ff92909216919091179055505050565b600061018861029b565b60030154905090565b8061019a61029b565b6003015550565b6101be82826101af82610305565b6101b991906104ff565b610331565b5050565b600061022c6001604051806020016101d99061035f565b601f1982820381018352601f90910116604081815282516020938401206001600160a01b03168383015280518083038401815291810190528051910120610220919061065e565b63a6e1d6ed60e01b1890565b905090565b600061022c6001604051806020016102489061036b565b601f1982820381018352601f90910116604081815282516020938401206001600160a01b0316838301528051808303840181529181019052805191012061028f919061065e565b6338fa853960e01b1890565b600061022c6001604051806020016102b290610377565b601f1982820381018352601f90910116604081815282516020938401206001600160a01b031683830152805180830384018152918101905280519101206102f9919061065e565b634a17459160e11b1890565b600061030f61029b565b6001600160a01b03909216600090815260049290920160205250604090205490565b8061033a61029b565b6001600160a01b03909316600090815260049390930160205260409092209190915550565b60e780611e6983390190565b60e780611f5083390190565b60e78061203783390190565b634e487b7160e01b600052604160045260246000fd5b600082601f8301126103aa57600080fd5b81516001600160401b038111156103c3576103c3610383565b604051601f8201601f19908116603f011681016001600160401b03811182821017156103f1576103f1610383565b60405281815283820160200185101561040957600080fd5b60005b828110156104285760208186018101518383018201520161040c565b506000918101602001919091529392505050565b600080600080600060a0868803121561045457600080fd5b85516001600160401b0381111561046a57600080fd5b61047688828901610399565b602088015190965090506001600160401b0381111561049457600080fd5b6104a088828901610399565b945050604086015160ff811681146104b757600080fd5b6060870151608088015191945092506001600160a01b03811681146104db57600080fd5b809150509295509295909350565b634e487b7160e01b600052601160045260246000fd5b80820180821115610512576105126104e9565b92915050565b600181811c9082168061052c57607f821691505b60208210810361054c57634e487b7160e01b600052602260045260246000fd5b50919050565b601f82111561006e57806000526020600020601f840160051c810160208510156105795750805b601f840160051c820191505b818110156105995760008155600101610585565b5050505050565b81516001600160401b038111156105b9576105b9610383565b6105cd816105c78454610518565b84610552565b6020601f82116001811461060157600083156105e95750848201515b600019600385901b1c1916600184901b178455610599565b600084815260208120601f198516915b828110156106315787850151825560209485019460019092019101610611565b508482101561064f5786840151600019600387901b60f8161c191681555b50505050600190811b01905550565b81810381811115610512576105126104e9565b6117e9806106806000396000f3fe60806040526004361061015f5760003560e01c806379ba5097116100c0578063a9059cbb11610074578063dd62ed3e11610059578063dd62ed3e1461038a578063f2fde38b146103aa578063fcd3533c146103ca57600080fd5b8063a9059cbb14610355578063d153b60c1461037557600080fd5b806394bf804d116100a557806394bf804d1461030d57806395d89b4114610320578063a457c2d71461033557600080fd5b806379ba5097146102be5780638da5cb5b146102d357600080fd5b806339509351116101175780636d70f7ae116100fc5780636d70f7ae1461026957806370a0823114610289578063715018a6146102a957600080fd5b80633950935114610229578063558a72971461024957600080fd5b806318160ddd1161014857806318160ddd146101bf57806323b872dd146101e2578063313ce5671461020257600080fd5b806306fdde0314610164578063095ea7b31461018f575b600080fd5b34801561017057600080fd5b506101796103ea565b60405161018691906112b3565b60405180910390f35b34801561019b57600080fd5b506101af6101aa366004611348565b6103f9565b6040519015158152602001610186565b3480156101cb57600080fd5b506101d461045e565b604051908152602001610186565b3480156101ee57600080fd5b506101af6101fd366004611372565b610468565b34801561020e57600080fd5b506102176104e7565b60405160ff9091168152602001610186565b34801561023557600080fd5b506101af610244366004611348565b6104f1565b34801561025557600080fd5b506101af6102643660046113af565b610507565b34801561027557600080fd5b506101af6102843660046113eb565b61051d565b34801561029557600080fd5b506101d46102a43660046113eb565b610556565b3480156102b557600080fd5b506101af610561565b3480156102ca57600080fd5b506101af61057b565b3480156102df57600080fd5b506102e861058f565b60405173ffffffffffffffffffffffffffffffffffffffff9091168152602001610186565b6101d461031b366004611406565b610599565b34801561032c57600080fd5b50610179610649565b34801561034157600080fd5b506101af610350366004611348565b610653565b34801561036157600080fd5b506101af610370366004611348565b610660565b34801561038157600080fd5b506102e86106b7565b34801561039657600080fd5b506101d46103a5366004611432565b6106c1565b3480156103b657600080fd5b506101af6103c53660046113eb565b6106d4565b3480156103d657600080fd5b506101d46103e5366004611406565b6106f2565b60606103f461079c565b905090565b6000610406338484610834565b60405182815273ffffffffffffffffffffffffffffffffffffffff84169033907f8c5be1e5ebec7d5bd14f71427d1e84f3dd0314c0f7b2291e5b200ac8c7c3b925906020015b60405180910390a35060015b92915050565b60006103f4610949565b60006104763385858561095c565b8273ffffffffffffffffffffffffffffffffffffffff168473ffffffffffffffffffffffffffffffffffffffff167fddf252ad1be2c89b69c2b068fc378daa952ba7f163c4a11628f55a4df523b3ef846040516104d591815260200190565b60405180910390a35060019392505050565b60006103f46109e7565b60006104fe3384846109fd565b50600192915050565b60006105138383610a21565b5060019392505050565b6000610527610a37565b73ffffffffffffffffffffffffffffffffffffffff909216600090815260209290925250604090205460ff1690565b600061045882610ae5565b60003361056d81610b1e565b610575610b78565b91505090565b60003361058781610c49565b610575610ca0565b60006103f4610dbb565b6000336105a58161051d565b610636576040517f08c379a000000000000000000000000000000000000000000000000000000000815260206004820152602360248201527f4f70657261746f723a2063616c6c6572206973206e6f7420616e206f7065726160448201527f746f72000000000000000000000000000000000000000000000000000000000060648201526084015b60405180910390fd5b6106408484610de1565b50929392505050565b60606103f4610e0f565b60006104fe338484610e27565b600061066d338484610e41565b60405182815273ffffffffffffffffffffffffffffffffffffffff84169033907fddf252ad1be2c89b69c2b068fc378daa952ba7f163c4a11628f55a4df523b3ef9060200161044c565b60006103f4610e8e565b60006106cd8383610eb7565b9392505050565b6000336106e081610b1e565b6106e983610efe565b91505b50919050565b6000336106fe8161051d565b61078a576040517f08c379a000000000000000000000000000000000000000000000000000000000815260206004820152602360248201527f4f70657261746f723a2063616c6c6572206973206e6f7420616e206f7065726160448201527f746f720000000000000000000000000000000000000000000000000000000000606482015260840161062d565b6107948484610f80565b509192915050565b60606107a6610fa4565b80546107b19061145c565b80601f01602080910402602001604051908101604052809291908181526020018280546107dd9061145c565b801561082a5780601f106107ff5761010080835404028352916020019161082a565b820191906000526020600020905b81548152906001019060200180831161080d57829003601f168201915b5050505050905090565b73ffffffffffffffffffffffffffffffffffffffff8316610899576040517fec442f0500000000000000000000000000000000000000000000000000000000815273ffffffffffffffffffffffffffffffffffffffff8416600482015260240161062d565b73ffffffffffffffffffffffffffffffffffffffff82166108fe576040517fec442f0500000000000000000000000000000000000000000000000000000000815273ffffffffffffffffffffffffffffffffffffffff8316600482015260240161062d565b80610907610fa4565b73ffffffffffffffffffffffffffffffffffffffff94851660009081526005919091016020908152604080832095909616825293909352929091209190915550565b6000610953610fa4565b60030154905090565b60006109688486610eb7565b9050818110156109ca576040517ffb8f41b200000000000000000000000000000000000000000000000000000000815273ffffffffffffffffffffffffffffffffffffffff85166004820152602481018290526044810183905260640161062d565b6109d5848684610e27565b6109e0848484610e41565b5050505050565b60006109f1610fa4565b6002015460ff16919050565b610a1c838383610a0d8787610eb7565b610a1791906114d8565b610834565b505050565b600033610a2d81610b1e565b6105138484611052565b60006103f4600160405180602001610a4e9061128f565b7fffffffffffffffffffffffffffffffffffffffffffffffffffffffffffffffe082820381018352601f909101166040818152825160209384012073ffffffffffffffffffffffffffffffffffffffff168383015280518083038401815291810190528051910120610ac091906114eb565b7f38fa8539000000000000000000000000000000000000000000000000000000001890565b6000610aef610fa4565b73ffffffffffffffffffffffffffffffffffffffff909216600090815260049290920160205250604090205490565b610b27816110b5565b610b75576040517f245aecd300000000000000000000000000000000000000000000000000000000815273ffffffffffffffffffffffffffffffffffffffff8216600482015260240161062d565b50565b600080610b836110f4565b6001015473ffffffffffffffffffffffffffffffffffffffff1614610ba757600080fd5b6000610bb16110f4565b5473ffffffffffffffffffffffffffffffffffffffff1690506000610bd46110f4565b80547fffffffffffffffffffffffff00000000000000000000000000000000000000001673ffffffffffffffffffffffffffffffffffffffff9283161790556040516000918316907f0d18b5fd22306e373229b9439188228edca81207d1667f604daf6cef8aa3ee67908390a3600191505090565b610c52816111a2565b610b75576040517f29c8915000000000000000000000000000000000000000000000000000000000815273ffffffffffffffffffffffffffffffffffffffff8216600482015260240161062d565b600080610cab6110f4565b5473ffffffffffffffffffffffffffffffffffffffff1690506000610cce6110f4565b6001015473ffffffffffffffffffffffffffffffffffffffff16905080610cf36110f4565b80547fffffffffffffffffffffffff00000000000000000000000000000000000000001673ffffffffffffffffffffffffffffffffffffffff929092169190911790556000610d406110f4565b60010180547fffffffffffffffffffffffff00000000000000000000000000000000000000001673ffffffffffffffffffffffffffffffffffffffff928316179055604051828216918416907f0d18b5fd22306e373229b9439188228edca81207d1667f604daf6cef8aa3ee6790600090a360019250505090565b6000610dc56110f4565b5473ffffffffffffffffffffffffffffffffffffffff16919050565b6000610dfe83610def610949565b610df991906114d8565b6111ac565b610e0882846111bc565b5090919050565b6060610e19610fa4565b60010180546107b19061145c565b610a1c838383610e378787610eb7565b610a1791906114eb565b33610e7a576040517f94280d6200000000000000000000000000000000000000000000000000000000815233600482015260240161062d565b610e8483826111d9565b610a1c82826111bc565b6000610e986110f4565b6001015473ffffffffffffffffffffffffffffffffffffffff16919050565b6000610ec1610fa4565b73ffffffffffffffffffffffffffffffffffffffff9384166000908152600591909101602090815260408083209490951682529290925250205490565b600081610f096110f4565b60010180547fffffffffffffffffffffffff00000000000000000000000000000000000000001673ffffffffffffffffffffffffffffffffffffffff928316179055604051908316907f89970d0a4e7f4f6b57845e46822475f332aee691dbe32017e50f857f8c98951e90600090a2506001919050565b610f9682610f8c610949565b610df991906114eb565b610fa081836111d9565b5050565b60006103f4600160405180602001610fbb9061129b565b7fffffffffffffffffffffffffffffffffffffffffffffffffffffffffffffffe082820381018352601f909101166040818152825160209384012073ffffffffffffffffffffffffffffffffffffffff16838301528051808303840181529181019052805191012061102d91906114eb565b7f942e8b22000000000000000000000000000000000000000000000000000000001890565b8061105b610a37565b73ffffffffffffffffffffffffffffffffffffffff939093166000908152602093909352604090922080547fffffffffffffffffffffffffffffffffffffffffffffffffffffffffffffff00169215159290921790915550565b60006110bf610dbb565b73ffffffffffffffffffffffffffffffffffffffff168273ffffffffffffffffffffffffffffffffffffffff16149050919050565b60006103f460016040518060200161110b906112a7565b7fffffffffffffffffffffffffffffffffffffffffffffffffffffffffffffffe082820381018352601f909101166040818152825160209384012073ffffffffffffffffffffffffffffffffffffffff16838301528051808303840181529181019052805191012061117d91906114eb565b7fa6e1d6ed000000000000000000000000000000000000000000000000000000001890565b60006110bf610e8e565b806111b5610fa4565b6003015550565b610fa082826111ca85610ae5565b6111d491906114d8565b611254565b60006111e483610ae5565b905081811015611246576040517fe450d38c00000000000000000000000000000000000000000000000000000000815273ffffffffffffffffffffffffffffffffffffffff84166004820152602481018290526044810183905260640161062d565b610a1c836111d484846114eb565b8061125d610fa4565b73ffffffffffffffffffffffffffffffffffffffff909316600090815260049390930160205260409092209190915550565b60e7806114ff83390190565b60e7806115e683390190565b60e7806116cd83390190565b602081526000825180602084015260005b818110156112e157602081860181015160408684010152016112c4565b5060006040828501015260407fffffffffffffffffffffffffffffffffffffffffffffffffffffffffffffffe0601f83011684010191505092915050565b803573ffffffffffffffffffffffffffffffffffffffff8116811461134357600080fd5b919050565b6000806040838503121561135b57600080fd5b6113648361131f565b946020939093013593505050565b60008060006060848603121561138757600080fd5b6113908461131f565b925061139e6020850161131f565b929592945050506040919091013590565b600080604083850312156113c257600080fd5b6113cb8361131f565b9150602083013580151581146113e057600080fd5b809150509250929050565b6000602082840312156113fd57600080fd5b6106cd8261131f565b6000806040838503121561141957600080fd5b823591506114296020840161131f565b90509250929050565b6000806040838503121561144557600080fd5b61144e8361131f565b91506114296020840161131f565b600181811c9082168061147057607f821691505b6020821081036106ec577f4e487b7100000000000000000000000000000000000000000000000000000000600052602260045260246000fd5b7f4e487b7100000000000000000000000000000000000000000000000000000000600052601160045260246000fd5b80820180821115610458576104586114a9565b81810381811115610458576104586114a956fe60b06037600b82828239805160001a607314602a57634e487b7160e01b600052600060045260246000fd5b30600052607381538281f3fe7300000000000000000000000000000000000000003014608060405260043610603d5760003560e01c8063048f4ff114604257806381366cef146042575b600080fd5b6050604d3660046062565b90565b60405190815260200160405180910390f35b600060208284031215607357600080fd5b503591905056fea2646970667358221220829425de4c115ea12e4c8adf7bdc199935b695bc89f9d16e0d136ea59b7c42ed64736f6c634300081c003360b06037600b82828239805160001a607314602a57634e487b7160e01b600052600060045260246000fd5b30600052607381538281f3fe7300000000000000000000000000000000000000003014608060405260043610603d5760003560e01c806332713cde14604257806381366cef146042575b600080fd5b6050604d3660046062565b90565b60405190815260200160405180910390f35b600060208284031215607357600080fd5b503591905056fea26469706673582212206f26099c3c7eb9b45d6e4868fa15fc1da6d5832f71b205b94c8b8a5b75cf06b564736f6c634300081c003360b06037600b82828239805160001a607314602a57634e487b7160e01b600052600060045260246000fd5b30600052607381538281f3fe7300000000000000000000000000000000000000003014608060405260043610603d5760003560e01c806331ebcfd814604257806381366cef146042575b600080fd5b6050604d3660046062565b90565b60405190815260200160405180910390f35b600060208284031215607357600080fd5b503591905056fea2646970667358221220b573c556a98e2dec3aac252f6424ab4b62213609fed33768ac86b4c4f321846964736f6c634300081c0033a2646970667358221220baadbb9e0b57c30a2bfd7f5353346ac48bee6b58c06d09ea6e6bb01c806d28cd64736f6c634300081c003360b06037600b82828239805160001a607314602a57634e487b7160e01b600052600060045260246000fd5b30600052607381538281f3fe7300000000000000000000000000000000000000003014608060405260043610603d5760003560e01c806331ebcfd814604257806381366cef146042575b600080fd5b6050604d3660046062565b90565b60405190815260200160405180910390f35b600060208284031215607357600080fd5b503591905056fea2646970667358221220b573c556a98e2dec3aac252f6424ab4b62213609fed33768ac86b4c4f321846964736f6c634300081c003360b06037600b82828239805160001a607314602a57634e487b7160e01b600052600060045260246000fd5b30600052607381538281f3fe7300000000000000000000000000000000000000003014608060405260043610603d5760003560e01c8063048f4ff114604257806381366cef146042575b600080fd5b6050604d3660046062565b90565b60405190815260200160405180910390f35b600060208284031215607357600080fd5b503591905056fea2646970667358221220829425de4c115ea12e4c8adf7bdc199935b695bc89f9d16e0d136ea59b7c42ed64736f6c634300081c003360b06037600b82828239805160001a607314602a57634e487b7160e01b600052600060045260246000fd5b30600052607381538281f3fe7300000000000000000000000000000000000000003014608060405260043610603d5760003560e01c806332713cde14604257806381366cef146042575b600080fd5b6050604d3660046062565b90565b60405190815260200160405180910390f35b600060208284031215607357600080fd5b503591905056fea26469706673582212206f26099c3c7eb9b45d6e4868fa15fc1da6d5832f71b205b94c8b8a5b75cf06b564736f6c634300081c0033","linkReferences":{}},"methodIdentifiers":{"acceptOwnership()":"79ba5097","allowance(address,address)":"dd62ed3e","approve(address,uint256)":"095ea7b3","balanceOf(address)":"70a08231","burn(uint256,address)":"fcd3533c","decimals()":"313ce567","decreaseAllowance(address,uint256)":"a457c2d7","increaseAllowance(address,uint256)":"39509351","isOperator(address)":"6d70f7ae","mint(uint256,address)":"94bf804d","name()":"06fdde03","owner()":"8da5cb5b","proposedOwner()":"d153b60c","renounceOwnership()":"715018a6","setOperator(address,bool)":"558a7297","symbol()":"95d89b41","totalSupply()":"18160ddd","transfer(address,uint256)":"a9059cbb","transferFrom(address,address,uint256)":"23b872dd","transferOwnership(address)":"f2fde38b"},"id":94}