{"abi":[{"type":"function","name":"isValidIndex","inputs":[{"name":"length","type":"uint256","internalType":"uint256"},{"name":"index","type":"uint256","internalType":"uint256"}],"outputs":[{"name":"isValid","type":"bool","internalType":"bool"}],"stateMutability":"pure"},{"type":"error","name":"IndexOutOfBounds","inputs":[{"name":"length","type":"uint256","internalType":"uint256"},{"name":"invalidIndex","type":"uint256","internalType":"uint256"}]}],"bytecode":{"object":"0x610115610039600b82828239805160001a607314602c57634e487b7160e01b600052600060045260246000fd5b30600052607381538281f3fe730000000000000000000000000000000000000000301460806040526004361060335760003560e01c806365e8faf6146038575b600080fd5b6047604336600460be565b605b565b604051901515815260200160405180910390f35b600060658383606c565b9392505050565b60008183101560b5576040517f63a056dd000000000000000000000000000000000000000000000000000000008152600481018490526024810183905260440160405180910390fd5b50600192915050565b6000806040838503121560d057600080fd5b5050803592602090910135915056fea2646970667358221220a8ff17cdb6a56b69350ab989b359534e78c9ee9a41222d2044150c73d2f4c1f664736f6c634300081c0033","linkReferences":{}},"methodIdentifiers":{"isValidIndex(uint256,uint256)":"65e8faf6"},"id":24}