{"abi":[{"type":"function","name":"queryBlobFromOf","inputs":[{"name":"writer","type":"address","internalType":"address"},{"name":"key","type":"bytes32","internalType":"bytes32"}],"outputs":[{"name":"blob","type":"bytes","internalType":"bytes"}],"stateMutability":"view"},{"type":"function","name":"queryBlobOf","inputs":[{"name":"key","type":"bytes32","internalType":"bytes32"}],"outputs":[{"name":"blob","type":"bytes","internalType":"bytes"}],"stateMutability":"view"},{"type":"function","name":"queryBlobOfRange","inputs":[{"name":"key","type":"bytes32","internalType":"bytes32"},{"name":"start","type":"uint256","internalType":"uint256"},{"name":"end","type":"uint256","internalType":"uint256"}],"outputs":[{"name":"","type":"bytes","internalType":"bytes"}],"stateMutability":"view"},{"type":"function","name":"queryBlobOfStart","inputs":[{"name":"key","type":"bytes32","internalType":"bytes32"},{"name":"start","type":"uint256","internalType":"uint256"}],"outputs":[{"name":"","type":"bytes","internalType":"bytes"}],"stateMutability":"view"},{"type":"function","name":"readBlob","inputs":[{"name":"pointer","type":"address","internalType":"address"}],"outputs":[{"name":"blob","type":"bytes","internalType":"bytes"}],"stateMutability":"view"},{"type":"error","name":"ErrorCreatingContract","inputs":[]},{"type":"error","name":"ErrorCreatingProxy","inputs":[]},{"type":"error","name":"InvalidCodeAtRange","inputs":[{"name":"_size","type":"uint256","internalType":"uint256"},{"name":"_start","type":"uint256","internalType":"uint256"},{"name":"_end","type":"uint256","internalType":"uint256"}]},{"type":"error","name":"TargetAlreadyExists","inputs":[]}],"bytecode":{"object":"0x610ea8610039600b82828239805160001a607314602c57634e487b7160e01b600052600060045260246000fd5b30600052607381538281f3fe73000000000000000000000000000000000000000030146080604052600436106100875760003560e01c80635232243611610065578063523224361461011a578063b1d9c8a51461012d578063c38aa85714610140578063c7085ee11461015357600080fd5b8063245f5c721461008c5780633c07c1d7146100b55780634b0b0c3d146100fa575b600080fd5b61009f61009a366004610a69565b610166565b6040516100ac9190610ab7565b60405180910390f35b8180156100c157600080fd5b506100d56100d0366004610c03565b61018f565b60405173ffffffffffffffffffffffffffffffffffffffff90911681526020016100ac565b81801561010657600080fd5b506100d5610115366004610c38565b6101a0565b61009f610128366004610c7d565b6101ac565b61009f61013b366004610c98565b6101cd565b61009f61014e366004610cba565b6101d9565b61009f610161366004610cd3565b6101e4565b606061018873ffffffffffffffffffffffffffffffffffffffff8416836101f9565b9392505050565b600061019a826102b5565b92915050565b60006101888383610392565b606061019a8273ffffffffffffffffffffffffffffffffffffffff16610415565b6060610188838361045b565b606061019a826104e5565b60606101f1848484610567565b949350505050565b606061018860017fffffffffffffffffffffffffffffffffffffffffffffffffffffffffffffffff61029861027b86604080517fd351a9253491dfef66f53115e9e3afda3b5fdef08a1de6937da91188ec553be56020820152908101829052600090606001604051602081830303815290604052805190602001209050919050565b73ffffffffffffffffffffffffffffffffffffffff8816906105d5565b73ffffffffffffffffffffffffffffffffffffffff16919061073c565b600080826040516020016102c99190610cff565b60405160208183030381529060405290506000816040516020016102ed9190610d25565b60405160208183030381529060405290508051602082016000f0925073ffffffffffffffffffffffffffffffffffffffff831661038b576040517f08c379a000000000000000000000000000000000000000000000000000000000815260206004820152601160248201527f4445504c4f594d454e545f4641494c454400000000000000000000000000000060448201526064015b60405180910390fd5b5050919050565b6000806103bd846040516020016103a99190610cff565b60405160208183030381529060405261083e565b604080517fd351a9253491dfef66f53115e9e3afda3b5fdef08a1de6937da91188ec553be5602080830191909152818301879052825180830384018152606090920190925280519101209091506101f190829061086a565b606061019a600161043d8173ffffffffffffffffffffffffffffffffffffffff86163b610d99565b73ffffffffffffffffffffffffffffffffffffffff8516919061073c565b606061018861046b836001610dac565b604080517fd351a9253491dfef66f53115e9e3afda3b5fdef08a1de6937da91188ec553be5602080830191909152818301889052825180830384018152606090920190925280519101207fffffffffffffffffffffffffffffffffffffffffffffffffffffffffffffffff9061029890610877565b610877565b606061019a60017fffffffffffffffffffffffffffffffffffffffffffffffffffffffffffffffff6102986104e086604080517fd351a9253491dfef66f53115e9e3afda3b5fdef08a1de6937da91188ec553be56020820152908101829052600090606001604051602081830303815290604052805190602001209050919050565b60606101f1610577846001610dac565b610582846001610dac565b604080517fd351a9253491dfef66f53115e9e3afda3b5fdef08a1de6937da91188ec553be56020808301919091528183018a905282518083038401815260609092019092528051910120610298906104e0565b604080518082018252601081527f67363d3d37363d34f03d5260086018f30000000000000000000000000000000060209182015290517fff00000000000000000000000000000000000000000000000000000000000000918101919091527fffffffffffffffffffffffffffffffffffffffff000000000000000000000000606084901b166021820152603581018290527f21c35dbe1b344a2488cf3321d6ce542f8e9f305544ff09e4993a62319a497c1f605582015260009081906106b2906075015b6040516020818303038152906040528051906020012090565b6040517fd69400000000000000000000000000000000000000000000000000000000000060208201527fffffffffffffffffffffffffffffffffffffffff000000000000000000000000606083901b1660228201527f010000000000000000000000000000000000000000000000000000000000000060368201529091506101f190603701610699565b606073ffffffffffffffffffffffffffffffffffffffff84163b6000819003610775575050604080516020810190915260008152610188565b80841115610793575050604080516020810190915260008152610188565b838310156107de576040517f2c4a89fa000000000000000000000000000000000000000000000000000000008152600481018290526024810185905260448101849052606401610382565b83830384820360008282106107f357826107f5565b815b60408051603f83017fffffffffffffffffffffffffffffffffffffffffffffffffffffffffffffffe0168101909152818152955090508087602087018a3c505050509392505050565b6060815182604051602001610854929190610dbf565b6040516020818303038152906040529050919050565b6000610188838383610883565b600061019a30836105d5565b60408051808201909152601081527f67363d3d37363d34f03d5260086018f30000000000000000000000000000000060208201526000906108c384610877565b915073ffffffffffffffffffffffffffffffffffffffff82163b15610914576040517fcd43efa100000000000000000000000000000000000000000000000000000000815260040160405180910390fd5b6000848251602084016000f5905073ffffffffffffffffffffffffffffffffffffffff811661096f576040517fbbd2fe8700000000000000000000000000000000000000000000000000000000815260040160405180910390fd5b60008173ffffffffffffffffffffffffffffffffffffffff1685886040516109979190610e56565b60006040518083038185875af1925050503d80600081146109d4576040519150601f19603f3d011682016040523d82523d6000602084013e6109d9565b606091505b505090508015806109ff575073ffffffffffffffffffffffffffffffffffffffff84163b155b15610a36576040517f53de54b900000000000000000000000000000000000000000000000000000000815260040160405180910390fd5b5050509392505050565b803573ffffffffffffffffffffffffffffffffffffffff81168114610a6457600080fd5b919050565b60008060408385031215610a7c57600080fd5b610a8583610a40565b946020939093013593505050565b60005b83811015610aae578181015183820152602001610a96565b50506000910152565b6020815260008251806020840152610ad6816040850160208701610a93565b601f017fffffffffffffffffffffffffffffffffffffffffffffffffffffffffffffffe0169190910160400192915050565b7f4e487b7100000000000000000000000000000000000000000000000000000000600052604160045260246000fd5b600082601f830112610b4857600080fd5b813567ffffffffffffffff811115610b6257610b62610b08565b6040517fffffffffffffffffffffffffffffffffffffffffffffffffffffffffffffffe0603f7fffffffffffffffffffffffffffffffffffffffffffffffffffffffffffffffe0601f8501160116810181811067ffffffffffffffff82111715610bce57610bce610b08565b604052818152838201602001851015610be657600080fd5b816020850160208301376000918101602001919091529392505050565b600060208284031215610c1557600080fd5b813567ffffffffffffffff811115610c2c57600080fd5b6101f184828501610b37565b60008060408385031215610c4b57600080fd5b823567ffffffffffffffff811115610c6257600080fd5b610c6e85828601610b37565b95602094909401359450505050565b600060208284031215610c8f57600080fd5b61018882610a40565b60008060408385031215610cab57600080fd5b50508035926020909101359150565b600060208284031215610ccc57600080fd5b5035919050565b600080600060608486031215610ce857600080fd5b505081359360208301359350604090920135919050565b6000815260008251610d18816001850160208701610a93565b9190910160010192915050565b7f600b5981380380925939f3000000000000000000000000000000000000000000815260008251610d5d81600b850160208701610a93565b91909101600b0192915050565b7f4e487b7100000000000000000000000000000000000000000000000000000000600052601160045260246000fd5b8181038181111561019a5761019a610d6a565b8082018082111561019a5761019a610d6a565b7f630000000000000000000000000000000000000000000000000000000000000081527fffffffff000000000000000000000000000000000000000000000000000000008360e01b1660018201527f80600e6000396000f30000000000000000000000000000000000000000000000600582015260008251610e4881600e850160208701610a93565b91909101600e019392505050565b60008251610e68818460208701610a93565b919091019291505056fea2646970667358221220996808d38906dca00d00956e8a8cf8670a66d9a75552bc564a842a21d65eeb7264736f6c634300081c0033","linkReferences":{}},"methodIdentifiers":{"mapBlob(bytes,bytes32)":"4b0b0c3d","queryBlobFromOf(address,bytes32)":"245f5c72","queryBlobOf(bytes32)":"c38aa857","queryBlobOfRange(bytes32,uint256,uint256)":"c7085ee1","queryBlobOfStart(bytes32,uint256)":"b1d9c8a5","readBlob(address)":"52322436","writeBlob(bytes)":"3c07c1d7"},"id":56}