{"abi":[{"type":"function","name":"acceptOwnership","inputs":[],"outputs":[{"name":"","type":"bool","internalType":"bool"}],"stateMutability":"nonpayable"},{"type":"function","name":"owner","inputs":[],"outputs":[{"name":"","type":"address","internalType":"address"}],"stateMutability":"view"},{"type":"function","name":"proposedOwner","inputs":[],"outputs":[{"name":"","type":"address","internalType":"address"}],"stateMutability":"view"},{"type":"function","name":"renounceOwnership","inputs":[],"outputs":[{"name":"","type":"bool","internalType":"bool"}],"stateMutability":"nonpayable"},{"type":"function","name":"transferOwnership","inputs":[{"name":"proposedOwner_","type":"address","internalType":"address"}],"outputs":[{"name":"","type":"bool","internalType":"bool"}],"stateMutability":"nonpayable"},{"type":"event","name":"OwnershipTransfered","inputs":[{"name":"prevOwner","type":"address","indexed":true,"internalType":"address"},{"name":"newOwner","type":"address","indexed":true,"internalType":"address"}],"anonymous":false},{"type":"event","name":"TransferProposed","inputs":[{"name":"proposedOwner","type":"address","indexed":true,"internalType":"address"}],"anonymous":false},{"type":"error","name":"NotOwner","inputs":[{"name":"caller","type":"address","internalType":"address"}]},{"type":"error","name":"NotProposed","inputs":[{"name":"caller","type":"address","internalType":"address"}]}],"bytecode":{"object":"0x6080604052348015600f57600080fd5b506107458061001f6000396000f3fe608060405234801561001057600080fd5b50600436106100675760003560e01c80638da5cb5b116100505780638da5cb5b14610091578063d153b60c146100be578063f2fde38b146100c657600080fd5b8063715018a61461006c57806379ba509714610089575b600080fd5b6100746100d9565b60405190151581526020015b60405180910390f35b6100746100f3565b610099610107565b60405173ffffffffffffffffffffffffffffffffffffffff9091168152602001610080565b610099610116565b6100746100d43660046105b2565b610120565b6000336100e58161013c565b6100ed61019b565b91505090565b6000336100ff8161026c565b6100ed6102c3565b60006101116103de565b905090565b6000610111610404565b60003361012c8161013c565b6101358361042d565b9392505050565b610145816104af565b610198576040517f245aecd300000000000000000000000000000000000000000000000000000000815273ffffffffffffffffffffffffffffffffffffffff821660048201526024015b60405180910390fd5b50565b6000806101a66104ee565b6001015473ffffffffffffffffffffffffffffffffffffffff16146101ca57600080fd5b60006101d46104ee565b5473ffffffffffffffffffffffffffffffffffffffff16905060006101f76104ee565b80547fffffffffffffffffffffffff00000000000000000000000000000000000000001673ffffffffffffffffffffffffffffffffffffffff9283161790556040516000918316907f0d18b5fd22306e373229b9439188228edca81207d1667f604daf6cef8aa3ee67908390a3600191505090565b6102758161059c565b610198576040517f29c8915000000000000000000000000000000000000000000000000000000000815273ffffffffffffffffffffffffffffffffffffffff8216600482015260240161018f565b6000806102ce6104ee565b5473ffffffffffffffffffffffffffffffffffffffff16905060006102f16104ee565b6001015473ffffffffffffffffffffffffffffffffffffffff169050806103166104ee565b80547fffffffffffffffffffffffff00000000000000000000000000000000000000001673ffffffffffffffffffffffffffffffffffffffff9290921691909117905560006103636104ee565b60010180547fffffffffffffffffffffffff00000000000000000000000000000000000000001673ffffffffffffffffffffffffffffffffffffffff928316179055604051828216918416907f0d18b5fd22306e373229b9439188228edca81207d1667f604daf6cef8aa3ee6790600090a360019250505090565b60006103e86104ee565b5473ffffffffffffffffffffffffffffffffffffffff16919050565b600061040e6104ee565b6001015473ffffffffffffffffffffffffffffffffffffffff16919050565b6000816104386104ee565b60010180547fffffffffffffffffffffffff00000000000000000000000000000000000000001673ffffffffffffffffffffffffffffffffffffffff928316179055604051908316907f89970d0a4e7f4f6b57845e46822475f332aee691dbe32017e50f857f8c98951e90600090a2506001919050565b60006104b96103de565b73ffffffffffffffffffffffffffffffffffffffff168273ffffffffffffffffffffffffffffffffffffffff16149050919050565b6000610111600160405180602001610505906105a6565b7fffffffffffffffffffffffffffffffffffffffffffffffffffffffffffffffe082820381018352601f909101166040818152825160209384012073ffffffffffffffffffffffffffffffffffffffff16838301528051808303840181529181019052805191012061057791906105e8565b7fa6e1d6ed000000000000000000000000000000000000000000000000000000001890565b60006104b9610404565b60e78061062983390190565b6000602082840312156105c457600080fd5b813573ffffffffffffffffffffffffffffffffffffffff8116811461013557600080fd5b81810381811115610622577f4e487b7100000000000000000000000000000000000000000000000000000000600052601160045260246000fd5b9291505056fe60b06037600b82828239805160001a607314602a57634e487b7160e01b600052600060045260246000fd5b30600052607381538281f3fe7300000000000000000000000000000000000000003014608060405260043610603d5760003560e01c806331ebcfd814604257806381366cef146042575b600080fd5b6050604d3660046062565b90565b60405190815260200160405180910390f35b600060208284031215607357600080fd5b503591905056fea2646970667358221220b573c556a98e2dec3aac252f6424ab4b62213609fed33768ac86b4c4f321846964736f6c634300081c0033a264697066735822122050b11b330f192b0472585a8952dd025318b2fc2265c6ef954c76202002913d5b64736f6c634300081c0033","linkReferences":{}},"methodIdentifiers":{"acceptOwnership()":"79ba5097","owner()":"8da5cb5b","proposedOwner()":"d153b60c","renounceOwnership()":"715018a6","transferOwnership(address)":"f2fde38b"},"id":7}