{"abi":[{"type":"constructor","inputs":[],"stateMutability":"nonpayable"},{"type":"function","name":"facetAddress","inputs":[{"name":"_functionSelector","type":"bytes4","internalType":"bytes4"}],"outputs":[{"name":"facetAddress_","type":"address","internalType":"address"}],"stateMutability":"view"},{"type":"function","name":"facetAddresses","inputs":[],"outputs":[{"name":"facetAddresses_","type":"address[]","internalType":"address[]"}],"stateMutability":"view"},{"type":"function","name":"facetCuts","inputs":[],"outputs":[{"name":"facetCuts_","type":"tuple[]","internalType":"struct IDiamond.FacetCut[]","components":[{"name":"facetAddress","type":"address","internalType":"address"},{"name":"action","type":"uint8","internalType":"enum IDiamond.FacetCutAction"},{"name":"functionSelectors","type":"bytes4[]","internalType":"bytes4[]"}]}],"stateMutability":"view"},{"type":"function","name":"facetFunctionSelectors","inputs":[{"name":"_facet","type":"address","internalType":"address"}],"outputs":[{"name":"facetFunctionSelectors_","type":"bytes4[]","internalType":"bytes4[]"}],"stateMutability":"view"},{"type":"function","name":"facets","inputs":[],"outputs":[{"name":"facets_","type":"tuple[]","internalType":"struct IDiamondLoupe.Facet[]","components":[{"name":"facetAddress","type":"address","internalType":"address"},{"name":"functionSelectors","type":"bytes4[]","internalType":"bytes4[]"}]}],"stateMutability":"view"},{"type":"function","name":"getTarget","inputs":[{"name":"functionSelector","type":"bytes4","internalType":"bytes4"}],"outputs":[{"name":"target_","type":"address","internalType":"address"}],"stateMutability":"view"},{"type":"function","name":"initAccount","inputs":[],"outputs":[{"name":"success","type":"bool","internalType":"bool"}],"stateMutability":"nonpayable"},{"type":"function","name":"initCodeHash","inputs":[],"outputs":[{"name":"initCodeHash_","type":"bytes32","internalType":"bytes32"}],"stateMutability":"view"},{"type":"function","name":"initContext","inputs":[{"name":"pkg","type":"address","internalType":"contract IPackage"},{"name":"pkgArgs","type":"bytes","internalType":"bytes"}],"outputs":[{"name":"initCode","type":"bytes","internalType":"bytes"},{"name":"salt_","type":"bytes32","internalType":"bytes32"},{"name":"initData_","type":"bytes","internalType":"bytes"}],"stateMutability":"nonpayable"},{"type":"function","name":"initData","inputs":[],"outputs":[{"name":"initData_","type":"bytes","internalType":"bytes"}],"stateMutability":"view"},{"type":"function","name":"loupeFuncs","inputs":[],"outputs":[{"name":"funcs","type":"bytes4[]","internalType":"bytes4[]"}],"stateMutability":"pure"},{"type":"function","name":"metadata","inputs":[],"outputs":[{"name":"metadata_","type":"tuple","internalType":"struct IDCDI.Metadata","components":[{"name":"origin","type":"address","internalType":"address"},{"name":"initCodeHash","type":"bytes32","internalType":"bytes32"},{"name":"salt","type":"bytes32","internalType":"bytes32"}]}],"stateMutability":"view"},{"type":"function","name":"origin","inputs":[],"outputs":[{"name":"origin_","type":"address","internalType":"address"}],"stateMutability":"view"},{"type":"function","name":"salt","inputs":[],"outputs":[{"name":"salt_","type":"bytes32","internalType":"bytes32"}],"stateMutability":"view"},{"type":"function","name":"self","inputs":[],"outputs":[{"name":"self_","type":"address","internalType":"address"}],"stateMutability":"view"},{"type":"function","name":"supportsInterface","inputs":[{"name":"interfaceId","type":"bytes4","internalType":"bytes4"}],"outputs":[{"name":"isSupported","type":"bool","internalType":"bool"}],"stateMutability":"view"},{"type":"event","name":"DiamondCut","inputs":[{"name":"_diamondCut","type":"tuple[]","indexed":false,"internalType":"struct IDiamond.FacetCut[]","components":[{"name":"facetAddress","type":"address","internalType":"address"},{"name":"action","type":"uint8","internalType":"enum IDiamond.FacetCutAction"},{"name":"functionSelectors","type":"bytes4[]","internalType":"bytes4[]"}]},{"name":"_init","type":"address","indexed":false,"internalType":"address"},{"name":"_calldata","type":"bytes","indexed":false,"internalType":"bytes"}],"anonymous":false},{"type":"error","name":"ErrorCreatingContract","inputs":[]},{"type":"error","name":"ErrorCreatingProxy","inputs":[]},{"type":"error","name":"InvalidCodeAtRange","inputs":[{"name":"_size","type":"uint256","internalType":"uint256"},{"name":"_start","type":"uint256","internalType":"uint256"},{"name":"_end","type":"uint256","internalType":"uint256"}]},{"type":"error","name":"TargetAlreadyExists","inputs":[]}],"bytecode":{"object":"0x61010060405234801561001157600080fd5b50336080523060a052600061003a61002860a05190565b6080516001600160a01b0316906100f4565b80519091506001600160a01b031661005160805190565b6001600160a01b03161461006457600080fd5b602081810151604080840151845182516001600160f81b03198187015260609190911b6001600160601b0319166021820152603581019190915260558082019390935281518082039093018352607501905280519101206001600160a01b03166100cd60a05190565b6001600160a01b0316146100e057600080fd5b602081015160c0526040015160e052610535565b6040805160608101825260008082526020820181905291810191909152610130826001600160a01b0381166001600160a01b038616919061014a565b80602001905181019061014391906104b6565b9392505050565b60606101578484846101bf565b61016f576040805160008152602081019091526101b7565b604080516001600160a01b03851660208201529081018390526101b79060600160408051601f1981840301815291905280516020909101206001600160a01b0386169061020a565b949350505050565b604080516001600160a01b03841660208201529081018290526000906101b79060600160408051601f1981840301815291905280516020909101206001600160a01b0386169061027c565b6060610143600160001961026c61025c86604080516000805160206154e58339815191526020820152908101829052600090606001604051602081830303815290604052805190602001209050919050565b6001600160a01b0388169061029a565b6001600160a01b0316919061037d565b6000806102926001600160a01b0385168461043f565b119392505050565b604080518082018252601081526f67363d3d37363d34f03d5260086018f360801b60209182015290516001600160f81b0319918101919091526001600160601b0319606084901b166021820152603581018290527f21c35dbe1b344a2488cf3321d6ce542f8e9f305544ff09e4993a62319a497c1f60558201526000908190610342906075015b6040516020818303038152906040528051906020012061046460201b60201c565b6040516135a560f21b60208201526001600160601b0319606083901b166022820152600160f81b60368201529091506101b790603701610321565b60606001600160a01b0384163b60008190036103a9575050604080516020810190915260008152610143565b808411156103c7575050604080516020810190915260008152610143565b838310156103fd5760405163162544fd60e11b815260048101829052602481018590526044810184905260640160405180910390fd5b83830384820360008282106104125782610414565b815b60408051603f8301601f19168101909152818152955090508087602087018a3c505050509392505050565b60006101436104576001600160a01b03851684610467565b6001600160a01b03163b90565b90565b604080516000805160206154e583398151915260208083019190915281830184905282518083038401815260609092019092528051910120600090610143906001600160a01b0385169061029a565b600060608284031280156104c957600080fd5b50604051600090606081016001600160401b03811182821017156104fb57634e487b7160e01b83526041600452602483fd5b60405283516001600160a01b0381168114610514578283fd5b81526020848101519082015260409384015193810193909352509092915050565b60805160a05160c05160e051614f1c6105c9600039600081816102220152818161032c0152610e2a0152600081816101fb0152818161035c0152610e09015260008181610281015281816104fd0152818161054b015281816106520152818161069d0152818161086b0152610dc60152600081816101c1015281816102d1015281816106300152610de80152614f1c6000f3fe608060405234801561001057600080fd5b50600436106101005760003560e01c80638eb36e3d11610097578063bfa0b13311610066578063bfa0b1331461032a578063cdffacc61461014f578063db4c545e1461035a578063f3797b781461038057600080fd5b80638eb36e3d146102ba578063938b5f32146102cf578063a4b3ad35146102f5578063adfca15e1461030a57600080fd5b80634ec1ce21116100d35780634ec1ce211461026257806352ef6b2c1461026a5780637104ddb21461027f5780637a0ed627146102a557600080fd5b806301ffc9a7146101055780631a1275ae1461012d578063374e40471461014f578063392f37e914610187575b600080fd5b610118610113366004612d4d565b610388565b60405190151581526020015b60405180910390f35b61014061013b366004612e79565b6103cd565b60405161012493929190612f7a565b61016261015d366004612d4d565b6105e8565b60405173ffffffffffffffffffffffffffffffffffffffff9091168152602001610124565b60408051606080820183526000808352602080840182905292840181905283518083018552818152808401829052840152825180820184527f000000000000000000000000000000000000000000000000000000000000000073ffffffffffffffffffffffffffffffffffffffff168082527f00000000000000000000000000000000000000000000000000000000000000008285019081527f000000000000000000000000000000000000000000000000000000000000000092860192835285519182525193810193909352519282019290925201610124565b6101186105fe565b6102726107f4565b6040516101249190612faf565b7f0000000000000000000000000000000000000000000000000000000000000000610162565b6102ad6107fe565b6040516101249190613066565b6102c2610808565b6040516101249190613116565b7f0000000000000000000000000000000000000000000000000000000000000000610162565b6102fd610812565b6040516101249190613242565b61031d610318366004613255565b6108db565b6040516101249190613272565b7f00000000000000000000000000000000000000000000000000000000000000005b604051908152602001610124565b7f000000000000000000000000000000000000000000000000000000000000000061034c565b61031d6108e6565b6000610392610a90565b7fffffffff00000000000000000000000000000000000000000000000000000000909216600090815260209290925250604090205460ff1690565b60606000816103f273ffffffffffffffffffffffffffffffffffffffff861685610b3e565b915060006104bd6040518060200161040990612c18565b7fffffffffffffffffffffffffffffffffffffffffffffffffffffffffffffffe082820381018352601f90910116604081815282516020938401207fff00000000000000000000000000000000000000000000000000000000000000848401527fffffffffffffffffffffffffffffffffffffffff0000000000000000000000003060601b166021840152603583018890526055808401919091528151808403909101815260759092019052805191012090565b6040805173ffffffffffffffffffffffffffffffffffffffff8916602082015291925060009101604051602081830303815290604052905061052761051f7f000000000000000000000000000000000000000000000000000000000000000090565b829084610bc2565b61054873ffffffffffffffffffffffffffffffffffffffff88168388610c17565b507f00000000000000000000000000000000000000000000000000000000000000006040805173ffffffffffffffffffffffffffffffffffffffff909216602083015201604080517fffffffffffffffffffffffffffffffffffffffffffffffffffffffffffffffe08184030181529082905293506105c960208201612c18565b6020820181038252601f19601f82011660405250945050509250925092565b60006105f382610c9e565b92915050565b905090565b600080610609610812565b905061061481610ccb565b600061067773ffffffffffffffffffffffffffffffffffffffff7f0000000000000000000000000000000000000000000000000000000000000000167f000000000000000000000000000000000000000000000000000000000000000030610cd7565b90507f8faa70878671ccd212d20771b795c50af8fd3ff6cf27f4bde57e5d4de0aeb673827f0000000000000000000000000000000000000000000000000000000000000000836040516106cc93929190613285565b60405180910390a16000818060200190518101906106ea91906132c6565b905060008173ffffffffffffffffffffffffffffffffffffffff1663a4b3ad356040518163ffffffff1660e01b8152600401600060405180830381865afa158015610739573d6000803e3d6000fd5b505050506040513d6000823e601f3d9081017fffffffffffffffffffffffffffffffffffffffffffffffffffffffffffffffe016820160405261077f9190810190613307565b905061078a81610ccb565b60006107ab8373ffffffffffffffffffffffffffffffffffffffff16610d41565b90507f8faa70878671ccd212d20771b795c50af8fd3ff6cf27f4bde57e5d4de0aeb6738284836040516107e093929190613285565b60405180910390a160019550505050505090565b60606105f9610d96565b60606105f9610da0565b60606105f9610daa565b60408051600480825260a08201909252606091816020015b6040805160608082018352600080835260208301529181019190915281526020019060019003908161082a579050509050604051806060016040528061088d7f000000000000000000000000000000000000000000000000000000000000000090565b73ffffffffffffffffffffffffffffffffffffffff168152602001600081526020016108b76108e6565b815250816000815181106108cd576108cd6134a6565b602002602001018190525090565b60606105f382610e4e565b60408051600480825260a0820190925260609160208201608080368337019050509050637a0ed62760e01b81600081518110610924576109246134a6565b7fffffffff000000000000000000000000000000000000000000000000000000009092166020928302919091019091015280517fadfca15e00000000000000000000000000000000000000000000000000000000908290600190811061098c5761098c6134a6565b7fffffffff000000000000000000000000000000000000000000000000000000009092166020928302919091019091015280517f52ef6b2c0000000000000000000000000000000000000000000000000000000090829060029081106109f4576109f46134a6565b7fffffffff000000000000000000000000000000000000000000000000000000009092166020928302919091019091015280517fcdffacc6000000000000000000000000000000000000000000000000000000009082906003908110610a5c57610a5c6134a6565b7fffffffff000000000000000000000000000000000000000000000000000000009092166020928302919091019091015290565b60006105f9600160405180602001610aa790612c25565b7fffffffffffffffffffffffffffffffffffffffffffffffffffffffffffffffe082820381018352601f909101166040818152825160209384012073ffffffffffffffffffffffffffffffffffffffff168383015280518083038401815291810190528051910120610b199190613504565b7f01ffc9a7000000000000000000000000000000000000000000000000000000001890565b6000610ba86387c3adb360e01b83604051602001610b5c9190613116565b604080517fffffffffffffffffffffffffffffffffffffffffffffffffffffffffffffffe081840301815291905273ffffffffffffffffffffffffffffffffffffffff86169190610e59565b806020019051810190610bbb9190613517565b9392505050565b6040805173ffffffffffffffffffffffffffffffffffffffff8481166020808401919091529084168284015282518083038401815260609092019092528051910120610c119084908390610fa3565b50505050565b6000610c83631a1275ae60e01b8484604051602001610c37929190613530565b604080517fffffffffffffffffffffffffffffffffffffffffffffffffffffffffffffffe081840301815291905273ffffffffffffffffffffffffffffffffffffffff87169190610e59565b806020019051810190610c96919061355f565b949350505050565b60006105f37fffffffff000000000000000000000000000000000000000000000000000000008316610ff8565b610cd481611024565b50565b6040805173ffffffffffffffffffffffffffffffffffffffff8481166020808401919091529084168284015282518083038401815260609283019093528251920191909120610c969083905b73ffffffffffffffffffffffffffffffffffffffff8716919061105e565b6060610d8373ffffffffffffffffffffffffffffffffffffffff83167f4ec1ce21000000000000000000000000000000000000000000000000000000006110eb565b8060200190518101906105f39190613581565b60606105f961124a565b60606105f9611275565b60606105f973ffffffffffffffffffffffffffffffffffffffff7f0000000000000000000000000000000000000000000000000000000000000000167f00000000000000000000000000000000000000000000000000000000000000007f00000000000000000000000000000000000000000000000000000000000000007f00000000000000000000000000000000000000000000000000000000000000006112a0565b60606105f3826112b7565b606060008473ffffffffffffffffffffffffffffffffffffffff168484604051602001610e879291906135ef565b604080517fffffffffffffffffffffffffffffffffffffffffffffffffffffffffffffffe081840301815290829052610ebf91613637565b600060405180830381855af49150503d8060008114610efa576040519150601f19603f3d011682016040523d82523d6000602084013e610eff565b606091505b5092509050600181151514610f9b576040517f08c379a000000000000000000000000000000000000000000000000000000000815260206004820152602b60248201527f416464726573733a5f64656c656761746543616c6c3a3a2064656c656761746560448201527f63616c6c206661696c656400000000000000000000000000000000000000000060648201526084015b60405180910390fd5b509392505050565b6040805173ffffffffffffffffffffffffffffffffffffffff84166020820152908101829052600090610c969060600160405160208183030381529060405280519060200120856112e390919063ffffffff16565b60006105f37f48e2b0930000000000000000000000000000000000000000000000000000000083611366565b60005b815181101561105a57611052828281518110611045576110456134a6565b60200260200101516113c3565b600101611027565b5050565b606061106b8484846114b9565b61108357604080516000815260208101909152610c96565b6040805173ffffffffffffffffffffffffffffffffffffffff85166020820152908101839052610c9690606001604051602081830303815290604052805190602001208573ffffffffffffffffffffffffffffffffffffffff1661152490919063ffffffff16565b60408051600481526024810182526020810180517bffffffffffffffffffffffffffffffffffffffffffffffffffffffff167fffffffff000000000000000000000000000000000000000000000000000000008516179052905160609160009173ffffffffffffffffffffffffffffffffffffffff86169161116c91613637565b600060405180830381855af49150503d80600081146111a7576040519150601f19603f3d011682016040523d82523d6000602084013e6111ac565b606091505b5092509050600181151514611243576040517f08c379a000000000000000000000000000000000000000000000000000000000815260206004820152602b60248201527f416464726573733a5f64656c656761746543616c6c3a3a2064656c656761746560448201527f63616c6c206661696c65640000000000000000000000000000000000000000006064820152608401610f92565b5092915050565b60606105f97f48e2b093000000000000000000000000000000000000000000000000000000006115e0565b60606105f97f48e2b093000000000000000000000000000000000000000000000000000000006115f3565b60606112ae85838518610d23565b95945050505050565b60606105f37f48e2b0930000000000000000000000000000000000000000000000000000000083611606565b60008061130e846040516020016112fa9190613653565b60405160208183030381529060405261161b565b604080517fd351a9253491dfef66f53115e9e3afda3b5fdef08a1de6937da91188ec553be560208083019190915281830187905282518083038401815260609092019092528051910120909150610c96908290611647565b6000610bbb8261137585611654565b907fffffffff000000000000000000000000000000000000000000000000000000001660009081526005909101602052604090205473ffffffffffffffffffffffffffffffffffffffff1690565b6000816020015160028111156113db576113db613129565b0361141557604080518082018252825173ffffffffffffffffffffffffffffffffffffffff168152908201516020820152611415906116a9565b60018160200151600281111561142d5761142d613129565b0361146757604080518082018252825173ffffffffffffffffffffffffffffffffffffffff168152908201516020820152611467906116d3565b60028160200151600281111561147f5761147f613129565b03610cd457604080518082018252825173ffffffffffffffffffffffffffffffffffffffff168152908201516020820152610cd4906116fd565b6040805173ffffffffffffffffffffffffffffffffffffffff84166020820152908101829052600090610c9690606001604051602081830303815290604052805190602001208573ffffffffffffffffffffffffffffffffffffffff1661172790919063ffffffff16565b6060610bbb60017fffffffffffffffffffffffffffffffffffffffffffffffffffffffffffffffff6115c36115a686604080517fd351a9253491dfef66f53115e9e3afda3b5fdef08a1de6937da91188ec553be56020820152908101829052600090606001604051602081830303815290604052805190602001209050919050565b73ffffffffffffffffffffffffffffffffffffffff881690611752565b73ffffffffffffffffffffffffffffffffffffffff1691906118b9565b60606105f36115ee83611654565b6119bb565b60606105f361160183611654565b6119c9565b6060610bbb8261161585611654565b90611adb565b6060815182604051602001611631929190613679565b6040516020818303038152906040529050919050565b6000610bbb838383611b99565b60006040518060200161166690612c31565b7fffffffffffffffffffffffffffffffffffffffffffffffffffffffffffffffe082820381018352601f9091011660405280516020919091012091909118919050565b610cd47f48e2b0930000000000000000000000000000000000000000000000000000000082611d56565b610cd47f48e2b0930000000000000000000000000000000000000000000000000000000082611f14565b610cd47f48e2b0930000000000000000000000000000000000000000000000000000000082612181565b60008061174a73ffffffffffffffffffffffffffffffffffffffff85168461233f565b119392505050565b604080518082018252601081527f67363d3d37363d34f03d5260086018f30000000000000000000000000000000060209182015290517fff00000000000000000000000000000000000000000000000000000000000000918101919091527fffffffffffffffffffffffffffffffffffffffff000000000000000000000000606084901b166021820152603581018290527f21c35dbe1b344a2488cf3321d6ce542f8e9f305544ff09e4993a62319a497c1f6055820152600090819061182f906075015b6040516020818303038152906040528051906020012090565b6040517fd69400000000000000000000000000000000000000000000000000000000000060208201527fffffffffffffffffffffffffffffffffffffffff000000000000000000000000606083901b1660228201527f01000000000000000000000000000000000000000000000000000000000000006036820152909150610c9690603701611816565b606073ffffffffffffffffffffffffffffffffffffffff84163b60008190036118f2575050604080516020810190915260008152610bbb565b80841115611910575050604080516020810190915260008152610bbb565b8383101561195b576040517f2c4a89fa000000000000000000000000000000000000000000000000000000008152600481018290526024810185905260448101849052606401610f92565b83830384820360008282106119705782611972565b815b60408051603f83017fffffffffffffffffffffffffffffffffffffffffffffffffffffffffffffffe0168101909152818152955090508087602087018a3c505050509392505050565b60606105f38260030161237e565b606081805480602002602001604051908101604052809291908181526020016000905b82821015611ad057600084815260209081902060408051808201825260028602909201805473ffffffffffffffffffffffffffffffffffffffff168352600181018054835181870281018701909452808452939491938583019392830182828015611ab857602002820191906000526020600020906000905b82829054906101000a900460e01b7bffffffffffffffffffffffffffffffffffffffffffffffffffffffff191681526020019060040190602082600301049283019260010382029150808411611a655790505b505050505081525050815260200190600101906119ec565b505050509050919050565b73ffffffffffffffffffffffffffffffffffffffff81166000908152600283016020908152604091829020805483518184028101840190945280845260609392830182828015611b8c57602002820191906000526020600020906000905b82829054906101000a900460e01b7bffffffffffffffffffffffffffffffffffffffffffffffffffffffff191681526020019060040190602082600301049283019260010382029150808411611b395790505b5050505050905092915050565b60408051808201909152601081527f67363d3d37363d34f03d5260086018f3000000000000000000000000000000006020820152600090611bd9846123f1565b915073ffffffffffffffffffffffffffffffffffffffff82163b15611c2a576040517fcd43efa100000000000000000000000000000000000000000000000000000000815260040160405180910390fd5b6000848251602084016000f5905073ffffffffffffffffffffffffffffffffffffffff8116611c85576040517fbbd2fe8700000000000000000000000000000000000000000000000000000000815260040160405180910390fd5b60008173ffffffffffffffffffffffffffffffffffffffff168588604051611cad9190613637565b60006040518083038185875af1925050503d8060008114611cea576040519150601f19603f3d011682016040523d82523d6000602084013e611cef565b606091505b50509050801580611d15575073ffffffffffffffffffffffffffffffffffffffff84163b155b15611d4c576040517f53de54b900000000000000000000000000000000000000000000000000000000815260040160405180910390fd5b5050509392505050565b6000611d6183611654565b905060005b826020015151811015611f0457600073ffffffffffffffffffffffffffffffffffffffff1682600501600085602001518481518110611da757611da76134a6565b6020908102919091018101517fffffffff000000000000000000000000000000000000000000000000000000001682528101919091526040016000205473ffffffffffffffffffffffffffffffffffffffff1614611e04826123fd565b604051602001611e149190613710565b60405160208183030381529060405290611e5b576040517f08c379a0000000000000000000000000000000000000000000000000000000008152600401610f929190613116565b50826000015182600501600085602001518481518110611e7d57611e7d6134a6565b6020908102919091018101517fffffffff0000000000000000000000000000000000000000000000000000000016825281019190915260400160002080547fffffffffffffffffffffffff00000000000000000000000000000000000000001673ffffffffffffffffffffffffffffffffffffffff92909216919091179055600101611d66565b50611f0f8183612532565b505050565b6000611f1f83611654565b905060005b826020015151811015610c1157600073ffffffffffffffffffffffffffffffffffffffff1682600501600085602001518481518110611f6557611f656134a6565b6020908102919091018101517fffffffff000000000000000000000000000000000000000000000000000000001682528101919091526040016000205473ffffffffffffffffffffffffffffffffffffffff1614158061204d5750826000015173ffffffffffffffffffffffffffffffffffffffff1682600501600085602001518481518110611ff757611ff76134a6565b6020908102919091018101517fffffffff000000000000000000000000000000000000000000000000000000001682528101919091526040016000205473ffffffffffffffffffffffffffffffffffffffff1614155b6120d9576040517f08c379a000000000000000000000000000000000000000000000000000000000815260206004820152602960248201527f46756e6374696f6e206e6f742070726576696f75736c7920736574206f72207260448201527f6564756e64616e742e00000000000000000000000000000000000000000000006064820152608401610f92565b8260000151826005016000856020015184815181106120fa576120fa6134a6565b6020908102919091018101517fffffffff0000000000000000000000000000000000000000000000000000000016825281019190915260400160002080547fffffffffffffffffffffffff00000000000000000000000000000000000000001673ffffffffffffffffffffffffffffffffffffffff92909216919091179055600101611f24565b600061218c83611654565b905060005b82602001515181101561233457600073ffffffffffffffffffffffffffffffffffffffff16826005016000856020015184815181106121d2576121d26134a6565b6020908102919091018101517fffffffff000000000000000000000000000000000000000000000000000000001682528101919091526040016000205473ffffffffffffffffffffffffffffffffffffffff160361228c576040517f08c379a000000000000000000000000000000000000000000000000000000000815260206004820152601c60248201527f46756e6374696f6e206e6f742070726576696f75736c79207365742e000000006044820152606401610f92565b8260000151826005016000856020015184815181106122ad576122ad6134a6565b6020908102919091018101517fffffffff0000000000000000000000000000000000000000000000000000000016825281019190915260400160002080547fffffffffffffffffffffffff00000000000000000000000000000000000000001673ffffffffffffffffffffffffffffffffffffffff92909216919091179055600101612191565b50611f0f818361258c565b6000610bbb61236473ffffffffffffffffffffffffffffffffffffffff8516846125db565b73ffffffffffffffffffffffffffffffffffffffff163b90565b6060816001018054806020026020016040519081016040528092919081815260200182805480156123e557602002820191906000526020600020905b815473ffffffffffffffffffffffffffffffffffffffff1681526001909101906020018083116123ba575b50505050509050919050565b60006105f33083611752565b60608160000361244057505060408051808201909152600181527f3000000000000000000000000000000000000000000000000000000000000000602082015290565b8160005b811561246a57806124548161377c565b91506124639050600a836137e3565b9150612444565b60008167ffffffffffffffff81111561248557612485612d8c565b6040519080825280601f01601f1916602001820160405280156124af576020820181803683370190505b5090505b8415610c96576124c4600183613504565b91506124d1600a866137f7565b6124dc90603061380b565b60f81b8183815181106124f1576124f16134a6565b60200101907effffffffffffffffffffffffffffffffffffffffffffffffffffffffffffff1916908160001a90535061252b600a866137e3565b94506124b3565b61253c8282612649565b50602080820151825173ffffffffffffffffffffffffffffffffffffffff16600090815260028501835260409020815161257b93919290910190612c3d565b508051611f0f906003840190612724565b80516125999083906127bc565b50805173ffffffffffffffffffffffffffffffffffffffff16600090815260028301602052604081206125cb91612ce9565b8051611f0f906003840190612a5d565b604080517fd351a9253491dfef66f53115e9e3afda3b5fdef08a1de6937da91188ec553be560208083019190915281830184905282518083038401815260609092019092528051910120600090610bbb9073ffffffffffffffffffffffffffffffffffffffff851690611752565b805173ffffffffffffffffffffffffffffffffffffffff16600090815260018301602052604081205461271b578254600180820185556000858152602090819020855160029094020180547fffffffffffffffffffffffff00000000000000000000000000000000000000001673ffffffffffffffffffffffffffffffffffffffff9094169390931783558481015180518694936126ec93908501920190612c3d565b50508354835173ffffffffffffffffffffffffffffffffffffffff166000908152600186016020526040902055505b50600192915050565b73ffffffffffffffffffffffffffffffffffffffff811660009081526020839052604081205461271b57506001828101805480830182556000828152602080822090920180547fffffffffffffffffffffffff00000000000000000000000000000000000000001673ffffffffffffffffffffffffffffffffffffffff96909616958617905591549382529390935260409092205590565b73ffffffffffffffffffffffffffffffffffffffff811660009081526001830160205260408120548015612a535760006127f7600183613504565b8554909150600090869061280d90600190613504565b8154811061281d5761281d6134a6565b60009182526020918290206040805180820182526002909302909101805473ffffffffffffffffffffffffffffffffffffffff1683526001810180548351818702810187019094528084529394919385830193928301828280156128e257602002820191906000526020600020906000905b82829054906101000a900460e01b7bffffffffffffffffffffffffffffffffffffffffffffffffffffffff19168152602001906004019060208260030104928301926001038202915080841161288f5790505b505050505081525050905080866000018381548110612903576129036134a6565b600091825260209182902083516002929092020180547fffffffffffffffffffffffff00000000000000000000000000000000000000001673ffffffffffffffffffffffffffffffffffffffff909216919091178155828201518051919261297392600185019290910190612c3d565b506129839150839050600161380b565b815173ffffffffffffffffffffffffffffffffffffffff16600090815260018801602052604090205585548690806129bd576129bd61381e565b60008281526020812060027fffffffffffffffffffffffffffffffffffffffffffffffffffffffffffffffff9093019283020180547fffffffffffffffffffffffff000000000000000000000000000000000000000016815590612a246001830182612ce9565b50509055505073ffffffffffffffffffffffffffffffffffffffff831660009081526001850160205260408120555b5060019392505050565b73ffffffffffffffffffffffffffffffffffffffff81166000908152602083905260408120548015612a53576000612a96600183613504565b600180870180549293506000929091612aae91613504565b81548110612abe57612abe6134a6565b60009182526020909120015460018701805473ffffffffffffffffffffffffffffffffffffffff9092169250829184908110612afc57612afc6134a6565b600091825260209091200180547fffffffffffffffffffffffff00000000000000000000000000000000000000001673ffffffffffffffffffffffffffffffffffffffff92909216919091179055612b5582600161380b565b73ffffffffffffffffffffffffffffffffffffffff821660009081526020889052604090205560018601805480612b8e57612b8e61381e565b6000828152602080822083017fffffffffffffffffffffffffffffffffffffffffffffffffffffffffffffffff90810180547fffffffffffffffffffffffff000000000000000000000000000000000000000016905590920190925573ffffffffffffffffffffffffffffffffffffffff8716825287905260408120555050600191505092915050565b6115258061384e83390190565b60e780614d7383390190565b608d80614e5a83390190565b82805482825590600052602060002090600701600890048101928215612cd95791602002820160005b83821115612ca757835183826101000a81548163ffffffff021916908360e01c02179055509260200192600401602081600301049283019260010302612c66565b8015612cd75782816101000a81549063ffffffff0219169055600401602081600301049283019260010302612ca7565b505b50612ce5929150612d0a565b5090565b508054600082556007016008900490600052602060002090810190610cd491905b5b80821115612ce55760008155600101612d0b565b7fffffffff0000000000000000000000000000000000000000000000000000000081168114610cd457600080fd5b600060208284031215612d5f57600080fd5b8135610bbb81612d1f565b73ffffffffffffffffffffffffffffffffffffffff81168114610cd457600080fd5b7f4e487b7100000000000000000000000000000000000000000000000000000000600052604160045260246000fd5b6040516060810167ffffffffffffffff81118282101715612dde57612dde612d8c565b60405290565b604051601f82017fffffffffffffffffffffffffffffffffffffffffffffffffffffffffffffffe016810167ffffffffffffffff81118282101715612e2b57612e2b612d8c565b604052919050565b600067ffffffffffffffff821115612e4d57612e4d612d8c565b50601f017fffffffffffffffffffffffffffffffffffffffffffffffffffffffffffffffe01660200190565b60008060408385031215612e8c57600080fd5b8235612e9781612d6a565b9150602083013567ffffffffffffffff811115612eb357600080fd5b8301601f81018513612ec457600080fd5b8035612ed7612ed282612e33565b612de4565b818152866020838501011115612eec57600080fd5b816020840160208301376000602083830101528093505050509250929050565b60005b83811015612f27578181015183820152602001612f0f565b50506000910152565b60008151808452612f48816020860160208601612f0c565b601f017fffffffffffffffffffffffffffffffffffffffffffffffffffffffffffffffe0169290920160200192915050565b606081526000612f8d6060830186612f30565b8460208401528281036040840152612fa58185612f30565b9695505050505050565b602080825282518282018190526000918401906040840190835b81811015612ffd57835173ffffffffffffffffffffffffffffffffffffffff16835260209384019390920191600101612fc9565b509095945050505050565b600081518084526020840193506020830160005b8281101561305c5781517fffffffff000000000000000000000000000000000000000000000000000000001686526020958601959091019060010161301c565b5093949350505050565b6000602082016020835280845180835260408501915060408160051b86010192506020860160005b8281101561310a577fffffffffffffffffffffffffffffffffffffffffffffffffffffffffffffffc0878603018452815173ffffffffffffffffffffffffffffffffffffffff815116865260208101519050604060208701526130f46040870182613008565b955050602093840193919091019060010161308e565b50929695505050505050565b602081526000610bbb6020830184612f30565b7f4e487b7100000000000000000000000000000000000000000000000000000000600052602160045260246000fd5b600082825180855260208501945060208160051b8301016020850160005b83811015613236577fffffffffffffffffffffffffffffffffffffffffffffffffffffffffffffffe0858403018852815173ffffffffffffffffffffffffffffffffffffffff81511684526020810151600381106131fd577f4e487b7100000000000000000000000000000000000000000000000000000000600052602160045260246000fd5b80602086015250604081015190506060604085015261321f6060850182613008565b6020998a0199909450929092019150600101613176565b50909695505050505050565b602081526000610bbb6020830184613158565b60006020828403121561326757600080fd5b8135610bbb81612d6a565b602081526000610bbb6020830184613008565b6060815260006132986060830186613158565b73ffffffffffffffffffffffffffffffffffffffff851660208401528281036040840152612fa58185612f30565b6000602082840312156132d857600080fd5b8151610bbb81612d6a565b600067ffffffffffffffff8211156132fd576132fd612d8c565b5060051b60200190565b60006020828403121561331957600080fd5b815167ffffffffffffffff81111561333057600080fd5b8201601f8101841361334157600080fd5b805161334f612ed2826132e3565b8082825260208201915060208360051b85010192508683111561337157600080fd5b602084015b8381101561349b57805167ffffffffffffffff81111561339557600080fd5b85016060818a037fffffffffffffffffffffffffffffffffffffffffffffffffffffffffffffffe00112156133c957600080fd5b6133d1612dbb565b60208201516133df81612d6a565b81526040820151600381106133f357600080fd5b6020820152606082015167ffffffffffffffff81111561341257600080fd5b60208184010192505089601f83011261342a57600080fd5b8151613438612ed2826132e3565b8082825260208201915060208360051b86010192508c83111561345a57600080fd5b6020850194505b8285101561348557845161347481612d1f565b825260209485019490910190613461565b6040840152505084525060209283019201613376565b509695505050505050565b7f4e487b7100000000000000000000000000000000000000000000000000000000600052603260045260246000fd5b7f4e487b7100000000000000000000000000000000000000000000000000000000600052601160045260246000fd5b818103818111156105f3576105f36134d5565b60006020828403121561352957600080fd5b5051919050565b73ffffffffffffffffffffffffffffffffffffffff83168152604060208201526000610c966040830184612f30565b60006020828403121561357157600080fd5b81518015158114610bbb57600080fd5b60006020828403121561359357600080fd5b815167ffffffffffffffff8111156135aa57600080fd5b8201601f810184136135bb57600080fd5b80516135c9612ed282612e33565b8181528560208385010111156135de57600080fd5b6112ae826020830160208601612f0c565b7fffffffff000000000000000000000000000000000000000000000000000000008316815260008251613629816004850160208701612f0c565b919091016004019392505050565b60008251613649818460208701612f0c565b9190910192915050565b600081526000825161366c816001850160208701612f0c565b9190910160010192915050565b7f630000000000000000000000000000000000000000000000000000000000000081527fffffffff000000000000000000000000000000000000000000000000000000008360e01b1660018201527f80600e6000396000f3000000000000000000000000000000000000000000000060058201526000825161370281600e850160208701612f0c565b91909101600e019392505050565b7f46756e6374696f6e200000000000000000000000000000000000000000000000815260008251613748816009850160208701612f0c565b7f2070726576696f75736c79207365742e000000000000000000000000000000006009939091019283015250601901919050565b60007fffffffffffffffffffffffffffffffffffffffffffffffffffffffffffffffff82036137ad576137ad6134d5565b5060010190565b7f4e487b7100000000000000000000000000000000000000000000000000000000600052601260045260246000fd5b6000826137f2576137f26137b4565b500490565b600082613806576138066137b4565b500690565b808201808211156105f3576105f36134d5565b7f4e487b7100000000000000000000000000000000000000000000000000000000600052603160045260246000fdfe61012060405234801561001157600080fd5b50336080523060a052600061003a61002860a05190565b6080516001600160a01b031690610127565b80519091506001600160a01b031661005160805190565b6001600160a01b03161461006457600080fd5b602081810151604080840151845182516001600160f81b03198187015260609190911b6001600160601b0319166021820152603581019190915260558082019390935281518082039093018352607501905280519101206001600160a01b03166100cd60a05190565b6001600160a01b0316146100e057600080fd5b602081015160c0526040015160e0526100f761017d565b80602001905181019061010a9190610691565b6001600160a01b0316610100819052610122906101b3565b610751565b6040805160608101825260008082526020820181905291810191909152610163826001600160a01b0381166001600160a01b03861691906101d1565b80602001905181019061017691906106ae565b9392505050565b60606101ae61018a610246565b610192610251565b61019a61025c565b60a0516001600160a01b0316929190610267565b905090565b6101cd6001600160a01b038216634ec1ce2160e01b610288565b5050565b60606101de848484610386565b6101f65760408051600081526020810190915261023e565b604080516001600160a01b038516602082015290810183905261023e9060600160408051601f1981840301815291905280516020909101206001600160a01b038616906103d1565b949350505050565b60006101ae60805190565b60006101ae60c05190565b60006101ae60e05190565b606061027f6001600160a01b038516868585186101d1565b95945050505050565b60408051600481526024810182526020810180516001600160e01b03166001600160e01b0319851617905290516060916000916001600160a01b038616916102cf91610722565b600060405180830381855af49150503d806000811461030a576040519150601f19603f3d011682016040523d82523d6000602084013e61030f565b606091505b509250905060018115151461037f5760405162461bcd60e51b815260206004820152602b60248201527f416464726573733a5f64656c656761746543616c6c3a3a2064656c656761746560448201526a18d85b1b0819985a5b195960aa1b60648201526084015b60405180910390fd5b5092915050565b604080516001600160a01b038416602082015290810182905260009061023e9060600160408051601f1981840301815291905280516020909101206001600160a01b03861690610443565b6060610176600160001961043361042386604080516000805160206115058339815191526020820152908101829052600090606001604051602081830303815290604052805190602001209050919050565b6001600160a01b03881690610461565b6001600160a01b03169190610544565b6000806104596001600160a01b03851684610602565b119392505050565b604080518082018252601081526f67363d3d37363d34f03d5260086018f360801b60209182015290516001600160f81b0319918101919091526001600160601b0319606084901b166021820152603581018290527f21c35dbe1b344a2488cf3321d6ce542f8e9f305544ff09e4993a62319a497c1f60558201526000908190610509906075015b6040516020818303038152906040528051906020012061062760201b60201c565b6040516135a560f21b60208201526001600160601b0319606083901b166022820152600160f81b603682015290915061023e906037016104e8565b60606001600160a01b0384163b6000819003610570575050604080516020810190915260008152610176565b8084111561058e575050604080516020810190915260008152610176565b838310156105c05760405163162544fd60e11b8152600481018290526024810185905260448101849052606401610376565b83830384820360008282106105d557826105d7565b815b60408051603f8301601f19168101909152818152955090508087602087018a3c505050509392505050565b600061017661061a6001600160a01b0385168461062a565b6001600160a01b03163b90565b90565b6040805160008051602061150583398151915260208083019190915281830184905282518083038401815260609092019092528051910120600090610176906001600160a01b03851690610461565b6001600160a01b038116811461068e57600080fd5b50565b6000602082840312156106a357600080fd5b815161017681610679565b600060608284031280156106c157600080fd5b50604051600090606081016001600160401b03811182821017156106f357634e487b7160e01b83526041600452602483fd5b604052835161070181610679565b81526020848101519082015260409384015193810193909352509092915050565b6000825160005b818110156107435760208186018101518583015201610729565b506000920191825250919050565b60805160a05160c05160e05161010051610d3f6107c660003960006103d20152600081816102580152818161035501526105660152600081816102310152818161039201526105450152600081816102ac01526105020152600081816101f70152818161032201526105240152610d3f6000f3fe6080604052600436106100695760003560e01c8063938b5f3211610043578063938b5f3214610313578063bfa0b13314610346578063db4c545e1461038357610070565b8063392f37e9146101b05780637104ddb21461029d5780638eb36e3d146102f157610070565b3661007057005b336100dc576040517f08c379a000000000000000000000000000000000000000000000000000000000815260206004820152601960248201527f61646472657373283029206973206e657665722076616c69640000000000000060448201526064015b60405180910390fd5b60006100e66103b6565b905073ffffffffffffffffffffffffffffffffffffffff81163b61018c576040517f08c379a000000000000000000000000000000000000000000000000000000000815260206004820152602660248201527f50726f78793a20696d706c656d656e746174696f6e206d75737420626520636f60448201527f6e7472616374000000000000000000000000000000000000000000000000000060648201526084016100d3565b3660008037600080366000845af43d6000803e8080156101ab573d6000f35b3d6000fd5b3480156101bc57600080fd5b5060408051606080820183526000808352602080840182905292840181905283518083018552818152808401829052840152825180820184527f000000000000000000000000000000000000000000000000000000000000000073ffffffffffffffffffffffffffffffffffffffff168082527f00000000000000000000000000000000000000000000000000000000000000008285019081527f0000000000000000000000000000000000000000000000000000000000000000928601928352855191825251938101939093525192820192909252015b60405180910390f35b3480156102a957600080fd5b507f00000000000000000000000000000000000000000000000000000000000000005b60405173ffffffffffffffffffffffffffffffffffffffff9091168152602001610294565b3480156102fd57600080fd5b50610306610420565b6040516102949190610c1e565b34801561031f57600080fd5b507f00000000000000000000000000000000000000000000000000000000000000006102cc565b34801561035257600080fd5b507f00000000000000000000000000000000000000000000000000000000000000005b604051908152602001610294565b34801561038f57600080fd5b507f0000000000000000000000000000000000000000000000000000000000000000610375565b600061041b73ffffffffffffffffffffffffffffffffffffffff7f0000000000000000000000000000000000000000000000000000000000000000167fffffffff0000000000000000000000000000000000000000000000000000000083351661042a565b905090565b606061041b6104e6565b604080517fffffffff00000000000000000000000000000000000000000000000000000000831660208201526000916104cc917f374e4047000000000000000000000000000000000000000000000000000000009101604080517fffffffffffffffffffffffffffffffffffffffffffffffffffffffffffffffe081840301815291905273ffffffffffffffffffffffffffffffffffffffff8616919061058a565b8060200190518101906104df9190610c6f565b9392505050565b606061041b73ffffffffffffffffffffffffffffffffffffffff7f0000000000000000000000000000000000000000000000000000000000000000167f00000000000000000000000000000000000000000000000000000000000000007f00000000000000000000000000000000000000000000000000000000000000007f00000000000000000000000000000000000000000000000000000000000000006106cf565b606060008473ffffffffffffffffffffffffffffffffffffffff1684846040516020016105b8929190610ca5565b604080517fffffffffffffffffffffffffffffffffffffffffffffffffffffffffffffffe0818403018152908290526105f091610ced565b600060405180830381855af49150503d806000811461062b576040519150601f19603f3d011682016040523d82523d6000602084013e610630565b606091505b50925090506001811515146106c7576040517f08c379a000000000000000000000000000000000000000000000000000000000815260206004820152602b60248201527f416464726573733a5f64656c656761746543616c6c3a3a2064656c656761746560448201527f63616c6c206661696c656400000000000000000000000000000000000000000060648201526084016100d3565b509392505050565b60606106f473ffffffffffffffffffffffffffffffffffffffff8516868585186106fd565b95945050505050565b606061070a848484610792565b6107225760408051600081526020810190915261078a565b6040805173ffffffffffffffffffffffffffffffffffffffff8516602082015290810183905261078a90606001604051602081830303815290604052805190602001208573ffffffffffffffffffffffffffffffffffffffff166107fd90919063ffffffff16565b949350505050565b6040805173ffffffffffffffffffffffffffffffffffffffff8416602082015290810182905260009061078a90606001604051602081830303815290604052805190602001208573ffffffffffffffffffffffffffffffffffffffff166108b990919063ffffffff16565b60606104df60017fffffffffffffffffffffffffffffffffffffffffffffffffffffffffffffffff61089c61087f86604080517fd351a9253491dfef66f53115e9e3afda3b5fdef08a1de6937da91188ec553be56020820152908101829052600090606001604051602081830303815290604052805190602001209050919050565b73ffffffffffffffffffffffffffffffffffffffff8816906108e4565b73ffffffffffffffffffffffffffffffffffffffff169190610a4b565b6000806108dc73ffffffffffffffffffffffffffffffffffffffff851684610b4d565b119392505050565b604080518082018252601081527f67363d3d37363d34f03d5260086018f30000000000000000000000000000000060209182015290517fff00000000000000000000000000000000000000000000000000000000000000918101919091527fffffffffffffffffffffffffffffffffffffffff000000000000000000000000606084901b166021820152603581018290527f21c35dbe1b344a2488cf3321d6ce542f8e9f305544ff09e4993a62319a497c1f605582015260009081906109c1906075015b6040516020818303038152906040528051906020012090565b6040517fd69400000000000000000000000000000000000000000000000000000000000060208201527fffffffffffffffffffffffffffffffffffffffff000000000000000000000000606083901b1660228201527f0100000000000000000000000000000000000000000000000000000000000000603682015290915061078a906037016109a8565b606073ffffffffffffffffffffffffffffffffffffffff84163b6000819003610a845750506040805160208101909152600081526104df565b80841115610aa25750506040805160208101909152600081526104df565b83831015610aed576040517f2c4a89fa0000000000000000000000000000000000000000000000000000000081526004810182905260248101859052604481018490526064016100d3565b8383038482036000828210610b025782610b04565b815b60408051603f83017fffffffffffffffffffffffffffffffffffffffffffffffffffffffffffffffe0168101909152818152955090508087602087018a3c505050509392505050565b60006104df610b7273ffffffffffffffffffffffffffffffffffffffff851684610b8c565b73ffffffffffffffffffffffffffffffffffffffff163b90565b604080517fd351a9253491dfef66f53115e9e3afda3b5fdef08a1de6937da91188ec553be5602080830191909152818301849052825180830384018152606090920190925280519101206000906104df9073ffffffffffffffffffffffffffffffffffffffff8516906108e4565b60005b83811015610c15578181015183820152602001610bfd565b50506000910152565b6020815260008251806020840152610c3d816040850160208701610bfa565b601f017fffffffffffffffffffffffffffffffffffffffffffffffffffffffffffffffe0169190910160400192915050565b600060208284031215610c8157600080fd5b815173ffffffffffffffffffffffffffffffffffffffff811681146104df57600080fd5b7fffffffff000000000000000000000000000000000000000000000000000000008316815260008251610cdf816004850160208701610bfa565b919091016004019392505050565b60008251610cff818460208701610bfa565b919091019291505056fea2646970667358221220c1d2af214bc3ad7feb98be7434c598f46a6150e071e27cf2f9e55f16c141961564736f6c634300081c0033d351a9253491dfef66f53115e9e3afda3b5fdef08a1de6937da91188ec553be560b06037600b82828239805160001a607314602a57634e487b7160e01b600052600060045260246000fd5b30600052607381538281f3fe7300000000000000000000000000000000000000003014608060405260043610603d5760003560e01c806381366cef1460425780639d2e9292146042575b600080fd5b6050604d3660046062565b90565b60405190815260200160405180910390f35b600060208284031215607357600080fd5b503591905056fea26469706673582212205041568a822ddcb1a4a02a85ad15069e8f51d2bfcffe9a3c521acea270b28e8c64736f6c634300081c003360566037600b82828239805160001a607314602a57634e487b7160e01b600052600060045260246000fd5b30600052607381538281f3fe73000000000000000000000000000000000000000030146080604052600080fdfea264697066735822122007a9007289ff10baa36da90aaad9a96d7e473d9957d86c8d4978d3be05ea4b6d64736f6c634300081c0033a264697066735822122030f0ac50a300bb55fe5a7564a36cb08b20b3d4d880784fca3102bd63a7cfdf3064736f6c634300081c0033d351a9253491dfef66f53115e9e3afda3b5fdef08a1de6937da91188ec553be5","linkReferences":{}},"methodIdentifiers":{"facetAddress(bytes4)":"cdffacc6","facetAddresses()":"52ef6b2c","facetCuts()":"a4b3ad35","facetFunctionSelectors(address)":"adfca15e","facets()":"7a0ed627","getTarget(bytes4)":"374e4047","initAccount()":"4ec1ce21","initCodeHash()":"db4c545e","initContext(address,bytes)":"1a1275ae","initData()":"8eb36e3d","loupeFuncs()":"f3797b78","metadata()":"392f37e9","origin()":"938b5f32","salt()":"bfa0b133","self()":"7104ddb2","supportsInterface(bytes4)":"01ffc9a7"},"id":13}