{"abi":[{"type":"constructor","inputs":[],"stateMutability":"nonpayable"},{"type":"function","name":"supportsInterface","inputs":[{"name":"interfaceId","type":"bytes4","internalType":"bytes4"}],"outputs":[{"name":"isSupported","type":"bool","internalType":"bool"}],"stateMutability":"view"}],"bytecode":{"object":"0x608060405234801561001057600080fd5b5061002161001c610026565b61007f565b6101b0565b604080516001808252818301909252606091602080830190803683370190505090506301ffc9a760e01b816000815181106100635761006361019a565b6001600160e01b03199092166020928302919091019091015290565b60005b81518110156100dd5760016000808484815181106100a2576100a261019a565b6020908102919091018101516001600160e01b0319168252810191909152604001600020805460ff1916911515919091179055600101610082565b5060016000806100f36100ee61011f565b61015c565b6001600160e01b03191681526020810191909152604001600020805460ff191691151591909117905550565b604080516001808252818301909252606091602080830190803683370190505090506301ffc9a760e01b816000815181106100635761006361019a565b6000805b82518110156101945782818151811061017b5761017b61019a565b6020026020010151821891508080600101915050610160565b50919050565b634e487b7160e01b600052603260045260246000fd5b610100806101bf6000396000f3fe6080604052348015600f57600080fd5b506004361060285760003560e01c806301ffc9a714602d575b600080fd5b606f60383660046083565b7fffffffff000000000000000000000000000000000000000000000000000000001660009081526020819052604090205460ff1690565b604051901515815260200160405180910390f35b600060208284031215609457600080fd5b81357fffffffff000000000000000000000000000000000000000000000000000000008116811460c357600080fd5b939250505056fea2646970667358221220bf53db208db4b270d6d498063d5251131784ed02d579ac7dfa38169db171e28364736f6c634300081c0033","linkReferences":{}},"methodIdentifiers":{"supportsInterface(bytes4)":"01ffc9a7"},"id":31}