{"abi":[{"type":"constructor","inputs":[],"stateMutability":"nonpayable"},{"type":"fallback","stateMutability":"payable"},{"type":"receive","stateMutability":"payable"},{"type":"function","name":"initCodeHash","inputs":[],"outputs":[{"name":"initCodeHash_","type":"bytes32","internalType":"bytes32"}],"stateMutability":"view"},{"type":"function","name":"initData","inputs":[],"outputs":[{"name":"initData_","type":"bytes","internalType":"bytes"}],"stateMutability":"view"},{"type":"function","name":"metadata","inputs":[],"outputs":[{"name":"metadata_","type":"tuple","internalType":"struct IDCDI.Metadata","components":[{"name":"origin","type":"address","internalType":"address"},{"name":"initCodeHash","type":"bytes32","internalType":"bytes32"},{"name":"salt","type":"bytes32","internalType":"bytes32"}]}],"stateMutability":"view"},{"type":"function","name":"origin","inputs":[],"outputs":[{"name":"origin_","type":"address","internalType":"address"}],"stateMutability":"view"},{"type":"function","name":"salt","inputs":[],"outputs":[{"name":"salt_","type":"bytes32","internalType":"bytes32"}],"stateMutability":"view"},{"type":"function","name":"self","inputs":[],"outputs":[{"name":"self_","type":"address","internalType":"address"}],"stateMutability":"view"},{"type":"error","name":"InvalidCodeAtRange","inputs":[{"name":"_size","type":"uint256","internalType":"uint256"},{"name":"_start","type":"uint256","internalType":"uint256"},{"name":"_end","type":"uint256","internalType":"uint256"}]}],"bytecode":{"object":"0x61012060405234801561001157600080fd5b50336080523060a052600061003a61002860a05190565b6080516001600160a01b031690610127565b80519091506001600160a01b031661005160805190565b6001600160a01b03161461006457600080fd5b602081810151604080840151845182516001600160f81b03198187015260609190911b6001600160601b0319166021820152603581019190915260558082019390935281518082039093018352607501905280519101206001600160a01b03166100cd60a05190565b6001600160a01b0316146100e057600080fd5b602081015160c0526040015160e0526100f761017d565b80602001905181019061010a9190610691565b6001600160a01b0316610100819052610122906101b3565b610751565b6040805160608101825260008082526020820181905291810191909152610163826001600160a01b0381166001600160a01b03861691906101d1565b80602001905181019061017691906106ae565b9392505050565b60606101ae61018a610246565b610192610251565b61019a61025c565b60a0516001600160a01b0316929190610267565b905090565b6101cd6001600160a01b038216634ec1ce2160e01b610288565b5050565b60606101de848484610386565b6101f65760408051600081526020810190915261023e565b604080516001600160a01b038516602082015290810183905261023e9060600160408051601f1981840301815291905280516020909101206001600160a01b038616906103d1565b949350505050565b60006101ae60805190565b60006101ae60c05190565b60006101ae60e05190565b606061027f6001600160a01b038516868585186101d1565b95945050505050565b60408051600481526024810182526020810180516001600160e01b03166001600160e01b0319851617905290516060916000916001600160a01b038616916102cf91610722565b600060405180830381855af49150503d806000811461030a576040519150601f19603f3d011682016040523d82523d6000602084013e61030f565b606091505b509250905060018115151461037f5760405162461bcd60e51b815260206004820152602b60248201527f416464726573733a5f64656c656761746543616c6c3a3a2064656c656761746560448201526a18d85b1b0819985a5b195960aa1b60648201526084015b60405180910390fd5b5092915050565b604080516001600160a01b038416602082015290810182905260009061023e9060600160408051601f1981840301815291905280516020909101206001600160a01b03861690610443565b6060610176600160001961043361042386604080516000805160206115058339815191526020820152908101829052600090606001604051602081830303815290604052805190602001209050919050565b6001600160a01b03881690610461565b6001600160a01b03169190610544565b6000806104596001600160a01b03851684610602565b119392505050565b604080518082018252601081526f67363d3d37363d34f03d5260086018f360801b60209182015290516001600160f81b0319918101919091526001600160601b0319606084901b166021820152603581018290527f21c35dbe1b344a2488cf3321d6ce542f8e9f305544ff09e4993a62319a497c1f60558201526000908190610509906075015b6040516020818303038152906040528051906020012061062760201b60201c565b6040516135a560f21b60208201526001600160601b0319606083901b166022820152600160f81b603682015290915061023e906037016104e8565b60606001600160a01b0384163b6000819003610570575050604080516020810190915260008152610176565b8084111561058e575050604080516020810190915260008152610176565b838310156105c05760405163162544fd60e11b8152600481018290526024810185905260448101849052606401610376565b83830384820360008282106105d557826105d7565b815b60408051603f8301601f19168101909152818152955090508087602087018a3c505050509392505050565b600061017661061a6001600160a01b0385168461062a565b6001600160a01b03163b90565b90565b6040805160008051602061150583398151915260208083019190915281830184905282518083038401815260609092019092528051910120600090610176906001600160a01b03851690610461565b6001600160a01b038116811461068e57600080fd5b50565b6000602082840312156106a357600080fd5b815161017681610679565b600060608284031280156106c157600080fd5b50604051600090606081016001600160401b03811182821017156106f357634e487b7160e01b83526041600452602483fd5b604052835161070181610679565b81526020848101519082015260409384015193810193909352509092915050565b6000825160005b818110156107435760208186018101518583015201610729565b506000920191825250919050565b60805160a05160c05160e05161010051610d3f6107c660003960006103d20152600081816102580152818161035501526105660152600081816102310152818161039201526105450152600081816102ac01526105020152600081816101f70152818161032201526105240152610d3f6000f3fe6080604052600436106100695760003560e01c8063938b5f3211610043578063938b5f3214610313578063bfa0b13314610346578063db4c545e1461038357610070565b8063392f37e9146101b05780637104ddb21461029d5780638eb36e3d146102f157610070565b3661007057005b336100dc576040517f08c379a000000000000000000000000000000000000000000000000000000000815260206004820152601960248201527f61646472657373283029206973206e657665722076616c69640000000000000060448201526064015b60405180910390fd5b60006100e66103b6565b905073ffffffffffffffffffffffffffffffffffffffff81163b61018c576040517f08c379a000000000000000000000000000000000000000000000000000000000815260206004820152602660248201527f50726f78793a20696d706c656d656e746174696f6e206d75737420626520636f60448201527f6e7472616374000000000000000000000000000000000000000000000000000060648201526084016100d3565b3660008037600080366000845af43d6000803e8080156101ab573d6000f35b3d6000fd5b3480156101bc57600080fd5b5060408051606080820183526000808352602080840182905292840181905283518083018552818152808401829052840152825180820184527f000000000000000000000000000000000000000000000000000000000000000073ffffffffffffffffffffffffffffffffffffffff168082527f00000000000000000000000000000000000000000000000000000000000000008285019081527f0000000000000000000000000000000000000000000000000000000000000000928601928352855191825251938101939093525192820192909252015b60405180910390f35b3480156102a957600080fd5b507f00000000000000000000000000000000000000000000000000000000000000005b60405173ffffffffffffffffffffffffffffffffffffffff9091168152602001610294565b3480156102fd57600080fd5b50610306610420565b6040516102949190610c1e565b34801561031f57600080fd5b507f00000000000000000000000000000000000000000000000000000000000000006102cc565b34801561035257600080fd5b507f00000000000000000000000000000000000000000000000000000000000000005b604051908152602001610294565b34801561038f57600080fd5b507f0000000000000000000000000000000000000000000000000000000000000000610375565b600061041b73ffffffffffffffffffffffffffffffffffffffff7f0000000000000000000000000000000000000000000000000000000000000000167fffffffff0000000000000000000000000000000000000000000000000000000083351661042a565b905090565b606061041b6104e6565b604080517fffffffff00000000000000000000000000000000000000000000000000000000831660208201526000916104cc917f374e4047000000000000000000000000000000000000000000000000000000009101604080517fffffffffffffffffffffffffffffffffffffffffffffffffffffffffffffffe081840301815291905273ffffffffffffffffffffffffffffffffffffffff8616919061058a565b8060200190518101906104df9190610c6f565b9392505050565b606061041b73ffffffffffffffffffffffffffffffffffffffff7f0000000000000000000000000000000000000000000000000000000000000000167f00000000000000000000000000000000000000000000000000000000000000007f00000000000000000000000000000000000000000000000000000000000000007f00000000000000000000000000000000000000000000000000000000000000006106cf565b606060008473ffffffffffffffffffffffffffffffffffffffff1684846040516020016105b8929190610ca5565b604080517fffffffffffffffffffffffffffffffffffffffffffffffffffffffffffffffe0818403018152908290526105f091610ced565b600060405180830381855af49150503d806000811461062b576040519150601f19603f3d011682016040523d82523d6000602084013e610630565b606091505b50925090506001811515146106c7576040517f08c379a000000000000000000000000000000000000000000000000000000000815260206004820152602b60248201527f416464726573733a5f64656c656761746543616c6c3a3a2064656c656761746560448201527f63616c6c206661696c656400000000000000000000000000000000000000000060648201526084016100d3565b509392505050565b60606106f473ffffffffffffffffffffffffffffffffffffffff8516868585186106fd565b95945050505050565b606061070a848484610792565b6107225760408051600081526020810190915261078a565b6040805173ffffffffffffffffffffffffffffffffffffffff8516602082015290810183905261078a90606001604051602081830303815290604052805190602001208573ffffffffffffffffffffffffffffffffffffffff166107fd90919063ffffffff16565b949350505050565b6040805173ffffffffffffffffffffffffffffffffffffffff8416602082015290810182905260009061078a90606001604051602081830303815290604052805190602001208573ffffffffffffffffffffffffffffffffffffffff166108b990919063ffffffff16565b60606104df60017fffffffffffffffffffffffffffffffffffffffffffffffffffffffffffffffff61089c61087f86604080517fd351a9253491dfef66f53115e9e3afda3b5fdef08a1de6937da91188ec553be56020820152908101829052600090606001604051602081830303815290604052805190602001209050919050565b73ffffffffffffffffffffffffffffffffffffffff8816906108e4565b73ffffffffffffffffffffffffffffffffffffffff169190610a4b565b6000806108dc73ffffffffffffffffffffffffffffffffffffffff851684610b4d565b119392505050565b604080518082018252601081527f67363d3d37363d34f03d5260086018f30000000000000000000000000000000060209182015290517fff00000000000000000000000000000000000000000000000000000000000000918101919091527fffffffffffffffffffffffffffffffffffffffff000000000000000000000000606084901b166021820152603581018290527f21c35dbe1b344a2488cf3321d6ce542f8e9f305544ff09e4993a62319a497c1f605582015260009081906109c1906075015b6040516020818303038152906040528051906020012090565b6040517fd69400000000000000000000000000000000000000000000000000000000000060208201527fffffffffffffffffffffffffffffffffffffffff000000000000000000000000606083901b1660228201527f0100000000000000000000000000000000000000000000000000000000000000603682015290915061078a906037016109a8565b606073ffffffffffffffffffffffffffffffffffffffff84163b6000819003610a845750506040805160208101909152600081526104df565b80841115610aa25750506040805160208101909152600081526104df565b83831015610aed576040517f2c4a89fa0000000000000000000000000000000000000000000000000000000081526004810182905260248101859052604481018490526064016100d3565b8383038482036000828210610b025782610b04565b815b60408051603f83017fffffffffffffffffffffffffffffffffffffffffffffffffffffffffffffffe0168101909152818152955090508087602087018a3c505050509392505050565b60006104df610b7273ffffffffffffffffffffffffffffffffffffffff851684610b8c565b73ffffffffffffffffffffffffffffffffffffffff163b90565b604080517fd351a9253491dfef66f53115e9e3afda3b5fdef08a1de6937da91188ec553be5602080830191909152818301849052825180830384018152606090920190925280519101206000906104df9073ffffffffffffffffffffffffffffffffffffffff8516906108e4565b60005b83811015610c15578181015183820152602001610bfd565b50506000910152565b6020815260008251806020840152610c3d816040850160208701610bfa565b601f017fffffffffffffffffffffffffffffffffffffffffffffffffffffffffffffffe0169190910160400192915050565b600060208284031215610c8157600080fd5b815173ffffffffffffffffffffffffffffffffffffffff811681146104df57600080fd5b7fffffffff000000000000000000000000000000000000000000000000000000008316815260008251610cdf816004850160208701610bfa565b919091016004019392505050565b60008251610cff818460208701610bfa565b919091019291505056fea2646970667358221220c1d2af214bc3ad7feb98be7434c598f46a6150e071e27cf2f9e55f16c141961564736f6c634300081c0033d351a9253491dfef66f53115e9e3afda3b5fdef08a1de6937da91188ec553be5","linkReferences":{}},"methodIdentifiers":{"initCodeHash()":"db4c545e","initData()":"8eb36e3d","metadata()":"392f37e9","origin()":"938b5f32","salt()":"bfa0b133","self()":"7104ddb2"},"id":72}