{"abi":[{"type":"constructor","inputs":[],"stateMutability":"nonpayable"},{"type":"function","name":"acceptOwnership","inputs":[],"outputs":[{"name":"","type":"bool","internalType":"bool"}],"stateMutability":"nonpayable"},{"type":"function","name":"deployContract","inputs":[{"name":"initCode","type":"bytes","internalType":"bytes"},{"name":"initData","type":"bytes","internalType":"bytes"}],"outputs":[{"name":"deployment","type":"address","internalType":"address"}],"stateMutability":"nonpayable"},{"type":"function","name":"deployWithIniter","inputs":[{"name":"initer","type":"address","internalType":"contract IContextInitializer"},{"name":"pkg","type":"address","internalType":"contract IPackage"},{"name":"pkgArgs","type":"bytes","internalType":"bytes"}],"outputs":[{"name":"deployment","type":"address","internalType":"address"}],"stateMutability":"nonpayable"},{"type":"function","name":"isOperator","inputs":[{"name":"query","type":"address","internalType":"address"}],"outputs":[{"name":"","type":"bool","internalType":"bool"}],"stateMutability":"view"},{"type":"function","name":"owner","inputs":[],"outputs":[{"name":"","type":"address","internalType":"address"}],"stateMutability":"view"},{"type":"function","name":"proposedOwner","inputs":[],"outputs":[{"name":"","type":"address","internalType":"address"}],"stateMutability":"view"},{"type":"function","name":"renounceOwnership","inputs":[],"outputs":[{"name":"","type":"bool","internalType":"bool"}],"stateMutability":"nonpayable"},{"type":"function","name":"setOperator","inputs":[{"name":"operator","type":"address","internalType":"address"},{"name":"status","type":"bool","internalType":"bool"}],"outputs":[{"name":"","type":"bool","internalType":"bool"}],"stateMutability":"nonpayable"},{"type":"function","name":"transferOwnership","inputs":[{"name":"proposedOwner_","type":"address","internalType":"address"}],"outputs":[{"name":"","type":"bool","internalType":"bool"}],"stateMutability":"nonpayable"},{"type":"event","name":"OwnershipTransfered","inputs":[{"name":"prevOwner","type":"address","indexed":true,"internalType":"address"},{"name":"newOwner","type":"address","indexed":true,"internalType":"address"}],"anonymous":false},{"type":"event","name":"TransferProposed","inputs":[{"name":"proposedOwner","type":"address","indexed":true,"internalType":"address"}],"anonymous":false},{"type":"error","name":"ErrorCreatingContract","inputs":[]},{"type":"error","name":"ErrorCreatingProxy","inputs":[]},{"type":"error","name":"NotOwner","inputs":[{"name":"caller","type":"address","internalType":"address"}]},{"type":"error","name":"NotProposed","inputs":[{"name":"caller","type":"address","internalType":"address"}]},{"type":"error","name":"TargetAlreadyExists","inputs":[]}],"bytecode":{"object":"0x608060405234801561001057600080fd5b5061001a3361001f565b610116565b80610028610074565b80546001600160a01b0319166001600160a01b03928316179055604051908216906000907f0d18b5fd22306e373229b9439188228edca81207d1667f604daf6cef8aa3ee67908290a350565b60006100de60016040518060200161008b906100e3565b601f1982820381018352601f90910116604081815282516020938401206001600160a01b031683830152805180830384018152918101905280519101206100d291906100ef565b63a6e1d6ed60e01b1890565b905090565b60e780611b5f83390190565b8181038181111561011057634e487b7160e01b600052601160045260246000fd5b92915050565b611a3a806101256000396000f3fe608060405234801561001057600080fd5b50600436106100a35760003560e01c806379ba509711610076578063c10808d31161005b578063c10808d314610133578063d153b60c14610146578063f2fde38b1461014e57600080fd5b806379ba5097146101235780638da5cb5b1461012b57600080fd5b806330cd7f90146100a8578063558a7297146100e55780636d70f7ae14610108578063715018a61461011b575b600080fd5b6100bb6100b6366004611476565b610161565b60405173ffffffffffffffffffffffffffffffffffffffff90911681526020015b60405180910390f35b6100f86100f33660046114d8565b610250565b60405190151581526020016100dc565b6100f8610116366004611516565b610270565b6100f86102a9565b6100f86102c3565b6100bb6102d7565b6100bb610141366004611533565b6102e6565b6100bb61039f565b6100f861015c366004611516565b6103a9565b60003361016d81610270565b8061017c575061017c816103c5565b61020d576040517f08c379a000000000000000000000000000000000000000000000000000000000815260206004820152602c60248201527f4f70657261746f723a2063616c6c6572206973206e6f74206f77656e72206f7260448201527f20616e206f70657261746f72000000000000000000000000000000000000000060648201526084015b60405180910390fd5b6000808061023273ffffffffffffffffffffffffffffffffffffffff89168888610404565b9194509250905061024483838361049c565b98975050505050505050565b60003361025c816104f3565b610266848461054d565b5060019392505050565b600061027a6105b0565b73ffffffffffffffffffffffffffffffffffffffff909216600090815260209290925250604090205460ff1690565b6000336102b5816104f3565b6102bd61065e565b91505090565b6000336102cf8161072f565b6102bd610786565b60006102e16108a1565b905090565b6000336102f281610270565b806103015750610301816103c5565b61038d576040517f08c379a000000000000000000000000000000000000000000000000000000000815260206004820152602c60248201527f4f70657261746f723a2063616c6c6572206973206e6f74206f77656e72206f7260448201527f20616e206f70657261746f7200000000000000000000000000000000000000006064820152608401610204565b61039784846108c7565b949350505050565b60006102e16108de565b6000336103b5816104f3565b6103be83610907565b9392505050565b60006103cf6108a1565b73ffffffffffffffffffffffffffffffffffffffff168273ffffffffffffffffffffffffffffffffffffffff16149050919050565b6060600060606000610476631a1275ae60e01b878760405160200161042a9291906115c0565b604080517fffffffffffffffffffffffffffffffffffffffffffffffffffffffffffffffe081840301815291905273ffffffffffffffffffffffffffffffffffffffff8a169190610989565b90508080602001905181019061048c9190611673565b9199909850909650945050505050565b82516020808501919091206040805160608101825230815292830182905282018490526000916104cb81610ace565b508351156104df576104dd8185610b74565b505b6104e98686610bab565b9695505050505050565b6104fc816103c5565b61054a576040517f245aecd300000000000000000000000000000000000000000000000000000000815273ffffffffffffffffffffffffffffffffffffffff82166004820152602401610204565b50565b806105566105b0565b73ffffffffffffffffffffffffffffffffffffffff939093166000908152602093909352604090922080547fffffffffffffffffffffffffffffffffffffffffffffffffffffffffffffff00169215159290921790915550565b60006102e16001604051806020016105c790611322565b7fffffffffffffffffffffffffffffffffffffffffffffffffffffffffffffffe082820381018352601f909101166040818152825160209384012073ffffffffffffffffffffffffffffffffffffffff16838301528051808303840181529181019052805191012061063991906116db565b7f38fa8539000000000000000000000000000000000000000000000000000000001890565b600080610669610bb7565b6001015473ffffffffffffffffffffffffffffffffffffffff161461068d57600080fd5b6000610697610bb7565b5473ffffffffffffffffffffffffffffffffffffffff16905060006106ba610bb7565b80547fffffffffffffffffffffffff00000000000000000000000000000000000000001673ffffffffffffffffffffffffffffffffffffffff9283161790556040516000918316907f0d18b5fd22306e373229b9439188228edca81207d1667f604daf6cef8aa3ee67908390a3600191505090565b61073881610c65565b61054a576040517f29c8915000000000000000000000000000000000000000000000000000000000815273ffffffffffffffffffffffffffffffffffffffff82166004820152602401610204565b600080610791610bb7565b5473ffffffffffffffffffffffffffffffffffffffff16905060006107b4610bb7565b6001015473ffffffffffffffffffffffffffffffffffffffff169050806107d9610bb7565b80547fffffffffffffffffffffffff00000000000000000000000000000000000000001673ffffffffffffffffffffffffffffffffffffffff929092169190911790556000610826610bb7565b60010180547fffffffffffffffffffffffff00000000000000000000000000000000000000001673ffffffffffffffffffffffffffffffffffffffff928316179055604051828216918416907f0d18b5fd22306e373229b9439188228edca81207d1667f604daf6cef8aa3ee6790600090a360019250505090565b60006108ab610bb7565b5473ffffffffffffffffffffffffffffffffffffffff16919050565b60006103be6108d68484610c6f565b84908461049c565b60006108e8610bb7565b6001015473ffffffffffffffffffffffffffffffffffffffff16919050565b600081610912610bb7565b60010180547fffffffffffffffffffffffff00000000000000000000000000000000000000001673ffffffffffffffffffffffffffffffffffffffff928316179055604051908316907f89970d0a4e7f4f6b57845e46822475f332aee691dbe32017e50f857f8c98951e90600090a2506001919050565b606060008473ffffffffffffffffffffffffffffffffffffffff1684846040516020016109b7929190611715565b604080517fffffffffffffffffffffffffffffffffffffffffffffffffffffffffffffffe0818403018152908290526109ef9161175d565b600060405180830381855af49150503d8060008114610a2a576040519150601f19603f3d011682016040523d82523d6000602084013e610a2f565b606091505b5092509050600181151514610ac6576040517f08c379a000000000000000000000000000000000000000000000000000000000815260206004820152602b60248201527f416464726573733a5f64656c656761746543616c6c3a3a2064656c656761746560448201527f63616c6c206661696c65640000000000000000000000000000000000000000006064820152608401610204565b509392505050565b60208181015160408084015181517fff00000000000000000000000000000000000000000000000000000000000000818601523060601b7fffffffffffffffffffffffffffffffffffffffff000000000000000000000000166021820152603581019190915260558082019390935281518082039093018352607501905280519101206000906103be73ffffffffffffffffffffffffffffffffffffffff821684610c98565b60006103be8284602001518560400151610b8d87610d62565b73ffffffffffffffffffffffffffffffffffffffff16929190610df1565b60006103be8383610e09565b60006102e1600160405180602001610bce9061132e565b7fffffffffffffffffffffffffffffffffffffffffffffffffffffffffffffffe082820381018352601f909101166040818152825160209384012073ffffffffffffffffffffffffffffffffffffffff168383015280518083038401815291810190528051910120610c4091906116db565b7fa6e1d6ed000000000000000000000000000000000000000000000000000000001890565b60006103cf6108de565b60006103be82805190602001208480519060200120610ebf90919063ffffffff16565b92915050565b6000610ca382610d62565b73ffffffffffffffffffffffffffffffffffffffff168373ffffffffffffffffffffffffffffffffffffffff1614610cda57600080fd5b6103be8373ffffffffffffffffffffffffffffffffffffffff811660408051865173ffffffffffffffffffffffffffffffffffffffff1660208083019190915287015181830152908601516060820152608001604080517fffffffffffffffffffffffffffffffffffffffffffffffffffffffffffffffe08184030181529190529190610eeb565b602081810151604080840151845182517fff000000000000000000000000000000000000000000000000000000000000008187015260609190911b7fffffffffffffffffffffffffffffffffffffffff00000000000000000000000016602182015260358101919091526055808201939093528151808203909301835260750190528051910120600090610c92565b6000610e008486858518610eeb565b95945050505050565b60008260200183518381836000f592505073ffffffffffffffffffffffffffffffffffffffff82169050610c92576040517f08c379a000000000000000000000000000000000000000000000000000000000815260206004820152603960248201527f42797465436f64655574696c733a5f637265617465322862797465732c62797460448201527f65733332293a3a206661696c6564206465706c6f796d656e74000000000000006064820152608401610204565b604080516020808201949094528082019290925280518083038201815260609092019052805191012090565b6040805173ffffffffffffffffffffffffffffffffffffffff84166020820152908101829052600090610397906060016040516020818303038152906040528051906020012085610f4090919063ffffffff16565b600080610f6b84604051602001610f579190611779565b604051602081830303815290604052610fc3565b604080517fd351a9253491dfef66f53115e9e3afda3b5fdef08a1de6937da91188ec553be560208083019190915281830187905282518083038401815260609092019092528051910120909150610397908290610fef565b6060815182604051602001610fd992919061179f565b6040516020818303038152906040529050919050565b60006103be83838360408051808201909152601081527f67363d3d37363d34f03d5260086018f3000000000000000000000000000000006020820152600090611037846111b4565b915073ffffffffffffffffffffffffffffffffffffffff82163b15611088576040517fcd43efa100000000000000000000000000000000000000000000000000000000815260040160405180910390fd5b6000848251602084016000f5905073ffffffffffffffffffffffffffffffffffffffff81166110e3576040517fbbd2fe8700000000000000000000000000000000000000000000000000000000815260040160405180910390fd5b60008173ffffffffffffffffffffffffffffffffffffffff16858860405161110b919061175d565b60006040518083038185875af1925050503d8060008114611148576040519150601f19603f3d011682016040523d82523d6000602084013e61114d565b606091505b50509050801580611173575073ffffffffffffffffffffffffffffffffffffffff84163b155b156111aa576040517f53de54b900000000000000000000000000000000000000000000000000000000815260040160405180910390fd5b5050509392505050565b6000610c923083604080518082018252601081527f67363d3d37363d34f03d5260086018f30000000000000000000000000000000060209182015290517fff00000000000000000000000000000000000000000000000000000000000000918101919091527fffffffffffffffffffffffffffffffffffffffff000000000000000000000000606084901b166021820152603581018290527f21c35dbe1b344a2488cf3321d6ce542f8e9f305544ff09e4993a62319a497c1f60558201526000908190611298906075015b6040516020818303038152906040528051906020012090565b6040517fd69400000000000000000000000000000000000000000000000000000000000060208201527fffffffffffffffffffffffffffffffffffffffff000000000000000000000000606083901b1660228201527f010000000000000000000000000000000000000000000000000000000000000060368201529091506103979060370161127f565b60e78061183783390190565b60e78061191e83390190565b73ffffffffffffffffffffffffffffffffffffffff8116811461054a57600080fd5b7f4e487b7100000000000000000000000000000000000000000000000000000000600052604160045260246000fd5b604051601f82017fffffffffffffffffffffffffffffffffffffffffffffffffffffffffffffffe016810167ffffffffffffffff811182821017156113d2576113d261135c565b604052919050565b600067ffffffffffffffff8211156113f4576113f461135c565b50601f017fffffffffffffffffffffffffffffffffffffffffffffffffffffffffffffffe01660200190565b600082601f83011261143157600080fd5b813561144461143f826113da565b61138b565b81815284602083860101111561145957600080fd5b816020850160208301376000918101602001919091529392505050565b60008060006060848603121561148b57600080fd5b83356114968161133a565b925060208401356114a68161133a565b9150604084013567ffffffffffffffff8111156114c257600080fd5b6114ce86828701611420565b9150509250925092565b600080604083850312156114eb57600080fd5b82356114f68161133a565b91506020830135801515811461150b57600080fd5b809150509250929050565b60006020828403121561152857600080fd5b81356103be8161133a565b6000806040838503121561154657600080fd5b823567ffffffffffffffff81111561155d57600080fd5b61156985828601611420565b925050602083013567ffffffffffffffff81111561158657600080fd5b61159285828601611420565b9150509250929050565b60005b838110156115b757818101518382015260200161159f565b50506000910152565b73ffffffffffffffffffffffffffffffffffffffff8316815260406020820152600082518060408401526115fb81606085016020870161159c565b601f017fffffffffffffffffffffffffffffffffffffffffffffffffffffffffffffffe016919091016060019392505050565b600082601f83011261163f57600080fd5b815161164d61143f826113da565b81815284602083860101111561166257600080fd5b61039782602083016020870161159c565b60008060006060848603121561168857600080fd5b835167ffffffffffffffff81111561169f57600080fd5b6116ab8682870161162e565b93505060208401519150604084015167ffffffffffffffff8111156116cf57600080fd5b6114ce8682870161162e565b81810381811115610c92577f4e487b7100000000000000000000000000000000000000000000000000000000600052601160045260246000fd5b7fffffffff00000000000000000000000000000000000000000000000000000000831681526000825161174f81600485016020870161159c565b919091016004019392505050565b6000825161176f81846020870161159c565b9190910192915050565b600081526000825161179281600185016020870161159c565b9190910160010192915050565b7f630000000000000000000000000000000000000000000000000000000000000081527fffffffff000000000000000000000000000000000000000000000000000000008360e01b1660018201527f80600e6000396000f3000000000000000000000000000000000000000000000060058201526000825161182881600e85016020870161159c565b91909101600e01939250505056fe60b06037600b82828239805160001a607314602a57634e487b7160e01b600052600060045260246000fd5b30600052607381538281f3fe7300000000000000000000000000000000000000003014608060405260043610603d5760003560e01c8063048f4ff114604257806381366cef146042575b600080fd5b6050604d3660046062565b90565b60405190815260200160405180910390f35b600060208284031215607357600080fd5b503591905056fea2646970667358221220829425de4c115ea12e4c8adf7bdc199935b695bc89f9d16e0d136ea59b7c42ed64736f6c634300081c003360b06037600b82828239805160001a607314602a57634e487b7160e01b600052600060045260246000fd5b30600052607381538281f3fe7300000000000000000000000000000000000000003014608060405260043610603d5760003560e01c806331ebcfd814604257806381366cef146042575b600080fd5b6050604d3660046062565b90565b60405190815260200160405180910390f35b600060208284031215607357600080fd5b503591905056fea2646970667358221220b573c556a98e2dec3aac252f6424ab4b62213609fed33768ac86b4c4f321846964736f6c634300081c0033a2646970667358221220c974b772501e21e271dfc893cb19764805ff10d829da86cc6422c6ebee9c7a9a64736f6c634300081c003360b06037600b82828239805160001a607314602a57634e487b7160e01b600052600060045260246000fd5b30600052607381538281f3fe7300000000000000000000000000000000000000003014608060405260043610603d5760003560e01c806331ebcfd814604257806381366cef146042575b600080fd5b6050604d3660046062565b90565b60405190815260200160405180910390f35b600060208284031215607357600080fd5b503591905056fea2646970667358221220b573c556a98e2dec3aac252f6424ab4b62213609fed33768ac86b4c4f321846964736f6c634300081c0033","linkReferences":{}},"methodIdentifiers":{"acceptOwnership()":"79ba5097","deployContract(bytes,bytes)":"c10808d3","deployWithIniter(address,address,bytes)":"30cd7f90","isOperator(address)":"6d70f7ae","owner()":"8da5cb5b","proposedOwner()":"d153b60c","renounceOwnership()":"715018a6","setOperator(address,bool)":"558a7297","transferOwnership(address)":"f2fde38b"},"id":19}