{"abi":[{"type":"function","name":"acceptOwnership","inputs":[],"outputs":[{"name":"","type":"bool","internalType":"bool"}],"stateMutability":"nonpayable"},{"type":"function","name":"isOperator","inputs":[{"name":"query","type":"address","internalType":"address"}],"outputs":[{"name":"","type":"bool","internalType":"bool"}],"stateMutability":"view"},{"type":"function","name":"owner","inputs":[],"outputs":[{"name":"","type":"address","internalType":"address"}],"stateMutability":"view"},{"type":"function","name":"proposedOwner","inputs":[],"outputs":[{"name":"","type":"address","internalType":"address"}],"stateMutability":"view"},{"type":"function","name":"renounceOwnership","inputs":[],"outputs":[{"name":"","type":"bool","internalType":"bool"}],"stateMutability":"nonpayable"},{"type":"function","name":"setOperator","inputs":[{"name":"operator","type":"address","internalType":"address"},{"name":"status","type":"bool","internalType":"bool"}],"outputs":[{"name":"","type":"bool","internalType":"bool"}],"stateMutability":"nonpayable"},{"type":"function","name":"transferOwnership","inputs":[{"name":"proposedOwner_","type":"address","internalType":"address"}],"outputs":[{"name":"","type":"bool","internalType":"bool"}],"stateMutability":"nonpayable"},{"type":"event","name":"OwnershipTransfered","inputs":[{"name":"prevOwner","type":"address","indexed":true,"internalType":"address"},{"name":"newOwner","type":"address","indexed":true,"internalType":"address"}],"anonymous":false},{"type":"event","name":"TransferProposed","inputs":[{"name":"proposedOwner","type":"address","indexed":true,"internalType":"address"}],"anonymous":false},{"type":"error","name":"NotOwner","inputs":[{"name":"caller","type":"address","internalType":"address"}]},{"type":"error","name":"NotProposed","inputs":[{"name":"caller","type":"address","internalType":"address"}]}],"bytecode":{"object":"0x6080604052348015600f57600080fd5b50610a288061001f6000396000f3fe608060405234801561001057600080fd5b506004361061007d5760003560e01c806379ba50971161005b57806379ba5097146100c55780638da5cb5b146100cd578063d153b60c146100fa578063f2fde38b1461010257600080fd5b8063558a7297146100825780636d70f7ae146100aa578063715018a6146100bd575b600080fd5b61009561009036600461078d565b610115565b60405190151581526020015b60405180910390f35b6100956100b83660046107c9565b610135565b61009561016e565b610095610188565b6100d561019c565b60405173ffffffffffffffffffffffffffffffffffffffff90911681526020016100a1565b6100d56101ab565b6100956101103660046107c9565b6101b5565b600033610121816101d1565b61012b8484610230565b5060019392505050565b600061013f610293565b73ffffffffffffffffffffffffffffffffffffffff909216600090815260209290925250604090205460ff1690565b60003361017a816101d1565b610182610341565b91505090565b60003361019481610412565b610182610469565b60006101a6610584565b905090565b60006101a66105aa565b6000336101c1816101d1565b6101ca836105d3565b9392505050565b6101da81610655565b61022d576040517f245aecd300000000000000000000000000000000000000000000000000000000815273ffffffffffffffffffffffffffffffffffffffff821660048201526024015b60405180910390fd5b50565b80610239610293565b73ffffffffffffffffffffffffffffffffffffffff939093166000908152602093909352604090922080547fffffffffffffffffffffffffffffffffffffffffffffffffffffffffffffff00169215159290921790915550565b60006101a66001604051806020016102aa9061074c565b7fffffffffffffffffffffffffffffffffffffffffffffffffffffffffffffffe082820381018352601f909101166040818152825160209384012073ffffffffffffffffffffffffffffffffffffffff16838301528051808303840181529181019052805191012061031c91906107e4565b7f38fa8539000000000000000000000000000000000000000000000000000000001890565b60008061034c610694565b6001015473ffffffffffffffffffffffffffffffffffffffff161461037057600080fd5b600061037a610694565b5473ffffffffffffffffffffffffffffffffffffffff169050600061039d610694565b80547fffffffffffffffffffffffff00000000000000000000000000000000000000001673ffffffffffffffffffffffffffffffffffffffff9283161790556040516000918316907f0d18b5fd22306e373229b9439188228edca81207d1667f604daf6cef8aa3ee67908390a3600191505090565b61041b81610742565b61022d576040517f29c8915000000000000000000000000000000000000000000000000000000000815273ffffffffffffffffffffffffffffffffffffffff82166004820152602401610224565b600080610474610694565b5473ffffffffffffffffffffffffffffffffffffffff1690506000610497610694565b6001015473ffffffffffffffffffffffffffffffffffffffff169050806104bc610694565b80547fffffffffffffffffffffffff00000000000000000000000000000000000000001673ffffffffffffffffffffffffffffffffffffffff929092169190911790556000610509610694565b60010180547fffffffffffffffffffffffff00000000000000000000000000000000000000001673ffffffffffffffffffffffffffffffffffffffff928316179055604051828216918416907f0d18b5fd22306e373229b9439188228edca81207d1667f604daf6cef8aa3ee6790600090a360019250505090565b600061058e610694565b5473ffffffffffffffffffffffffffffffffffffffff16919050565b60006105b4610694565b6001015473ffffffffffffffffffffffffffffffffffffffff16919050565b6000816105de610694565b60010180547fffffffffffffffffffffffff00000000000000000000000000000000000000001673ffffffffffffffffffffffffffffffffffffffff928316179055604051908316907f89970d0a4e7f4f6b57845e46822475f332aee691dbe32017e50f857f8c98951e90600090a2506001919050565b600061065f610584565b73ffffffffffffffffffffffffffffffffffffffff168273ffffffffffffffffffffffffffffffffffffffff16149050919050565b60006101a66001604051806020016106ab90610758565b7fffffffffffffffffffffffffffffffffffffffffffffffffffffffffffffffe082820381018352601f909101166040818152825160209384012073ffffffffffffffffffffffffffffffffffffffff16838301528051808303840181529181019052805191012061071d91906107e4565b7fa6e1d6ed000000000000000000000000000000000000000000000000000000001890565b600061065f6105aa565b60e78061082583390190565b60e78061090c83390190565b803573ffffffffffffffffffffffffffffffffffffffff8116811461078857600080fd5b919050565b600080604083850312156107a057600080fd5b6107a983610764565b9150602083013580151581146107be57600080fd5b809150509250929050565b6000602082840312156107db57600080fd5b6101ca82610764565b8181038181111561081e577f4e487b7100000000000000000000000000000000000000000000000000000000600052601160045260246000fd5b9291505056fe60b06037600b82828239805160001a607314602a57634e487b7160e01b600052600060045260246000fd5b30600052607381538281f3fe7300000000000000000000000000000000000000003014608060405260043610603d5760003560e01c8063048f4ff114604257806381366cef146042575b600080fd5b6050604d3660046062565b90565b60405190815260200160405180910390f35b600060208284031215607357600080fd5b503591905056fea2646970667358221220829425de4c115ea12e4c8adf7bdc199935b695bc89f9d16e0d136ea59b7c42ed64736f6c634300081c003360b06037600b82828239805160001a607314602a57634e487b7160e01b600052600060045260246000fd5b30600052607381538281f3fe7300000000000000000000000000000000000000003014608060405260043610603d5760003560e01c806331ebcfd814604257806381366cef146042575b600080fd5b6050604d3660046062565b90565b60405190815260200160405180910390f35b600060208284031215607357600080fd5b503591905056fea2646970667358221220b573c556a98e2dec3aac252f6424ab4b62213609fed33768ac86b4c4f321846964736f6c634300081c0033a26469706673582212202d1e03432e880c55c5e32b13b0d4c992e20553d16c44b85be2013e8bfac5158764736f6c634300081c0033","linkReferences":{}},"methodIdentifiers":{"acceptOwnership()":"79ba5097","isOperator(address)":"6d70f7ae","owner()":"8da5cb5b","proposedOwner()":"d153b60c","renounceOwnership()":"715018a6","setOperator(address,bool)":"558a7297","transferOwnership(address)":"f2fde38b"},"id":4}