{"abi":[{"type":"function","name":"create2AddressFrom","inputs":[{"name":"deployer","type":"address","internalType":"address"},{"name":"initCodeHash","type":"bytes32","internalType":"bytes32"},{"name":"salt","type":"bytes32","internalType":"bytes32"}],"outputs":[{"name":"","type":"address","internalType":"address"}],"stateMutability":"pure"}],"bytecode":{"object":"0x61063b610039600b82828239805160001a607314602c57634e487b7160e01b600052600060045260246000fd5b30600052607381538281f3fe73000000000000000000000000000000000000000030146080604052600436106100565760003560e01c80634498db631461005b57806376596239146100975780638c0b8db2146100b7578063cf5ba53f146100d7575b600080fd5b61006e61006936600461038b565b6100f7565b60405173ffffffffffffffffffffffffffffffffffffffff909116815260200160405180910390f35b8180156100a357600080fd5b5061006e6100b23660046104d4565b610183565b8180156100c357600080fd5b5061006e6100d2366004610546565b610190565b8180156100e357600080fd5b5061006e6100f236600461058b565b6101a3565b604080517fff00000000000000000000000000000000000000000000000000000000000000602080830191909152606086901b7fffffffffffffffffffffffffffffffffffffffff00000000000000000000000016602183015260358201849052605580830186905283518084039091018152607590920190925280519101206000905b949350505050565b600061017b8484846101b4565b600061019c83836101c1565b9392505050565b60006101ae826101cd565b92915050565b600061017b8484846101d8565b600061019c83836101ea565b60006101ae826102a5565b600061017b836101e8868561035f565b905b60008260200183518381836000f592505073ffffffffffffffffffffffffffffffffffffffff821690506101ae576040517f08c379a000000000000000000000000000000000000000000000000000000000815260206004820152603960248201527f42797465436f64655574696c733a5f637265617465322862797465732c62797460448201527f65733332293a3a206661696c6564206465706c6f796d656e740000000000000060648201526084015b60405180910390fd5b600081602001825180826000f092505073ffffffffffffffffffffffffffffffffffffffff8216905061035a576040517f08c379a000000000000000000000000000000000000000000000000000000000815260206004820152603060248201527f42797465436f64655574696c733a5f637265617465286279746573293a3a206660448201527f61696c6564206465706c6f796d656e7400000000000000000000000000000000606482015260840161029c565b919050565b606082826040516020016103749291906105f0565b604051602081830303815290604052905092915050565b6000806000606084860312156103a057600080fd5b833573ffffffffffffffffffffffffffffffffffffffff811681146103c457600080fd5b95602085013595506040909401359392505050565b7f4e487b7100000000000000000000000000000000000000000000000000000000600052604160045260246000fd5b600082601f83011261041957600080fd5b813567ffffffffffffffff811115610433576104336103d9565b6040517fffffffffffffffffffffffffffffffffffffffffffffffffffffffffffffffe0603f7fffffffffffffffffffffffffffffffffffffffffffffffffffffffffffffffe0601f8501160116810181811067ffffffffffffffff8211171561049f5761049f6103d9565b6040528181528382016020018510156104b757600080fd5b816020850160208301376000918101602001919091529392505050565b6000806000606084860312156104e957600080fd5b833567ffffffffffffffff81111561050057600080fd5b61050c86828701610408565b93505060208401359150604084013567ffffffffffffffff81111561053057600080fd5b61053c86828701610408565b9150509250925092565b6000806040838503121561055957600080fd5b823567ffffffffffffffff81111561057057600080fd5b61057c85828601610408565b95602094909401359450505050565b60006020828403121561059d57600080fd5b813567ffffffffffffffff8111156105b457600080fd5b61017b84828501610408565b6000815160005b818110156105e157602081850181015186830152016105c7565b50600093019283525090919050565b600061017b6105ff83866105c0565b846105c056fea26469706673582212206d2f54feec160c9b8e3154d541a40ec9bc8cec8064f6340ca329d5d561a7804264736f6c634300081c0033","linkReferences":{}},"methodIdentifiers":{"create(bytes)":"cf5ba53f","create2(bytes,bytes32)":"8c0b8db2","create2AddressFrom(address,bytes32,bytes32)":"4498db63","create2WithArgs(bytes,bytes32,bytes)":"76596239"},"id":28}